:080800009831EC2E0000FF3FCF
:08080800830184312000770810
:10081000A0007808A1007908A2007A08A30030009F
:100820001A082000A40030001B082000A50030009A
:100830001C082000A60030001D082000A70007307B
:10084000850019308400801E2B2C073085000F3066
:100850008400801A502C073085001A308400001C58
:10086000372C07308500103084000018522C2008E7
:10087000F7002108F8002208F9002308FA002408EC
:1008800030009A002000250830009B002000260838
:1008900030009C002000270830009D000900200047
:1008A0008031302D8031CB2E4927D620CC244410E6
:1008B00043244127CE224C0500008A21E8306E37C0
:1008C000653620180A22613A611D0A00C330EC34F3
:1008D0006239613AE9376E1D0A008A21E8306E37C5
:1008E0006536A0180A22613A611D0A00C330EC3453
:1008F0006239613AE9376E1D0A004927D620CC24B7
:100900004410D020D220CD22D42252050000D32A78
:10091000C321C52953050001CF2A54104F23202994
:100920004127C7220A00D32AC321C5295305000144
:10093000CF2A54104F2320294127C7220A00D32A47
:10094000C321C52953050001CF2A54104F23202964
:100950004127C7220A00D32AC321C5295305000114
:10096000CF2A54104F2320294127C7220A00D32A17
:10097000C321C52953050001CF2A54104F23202934
:100980004127C7220A004927D620CC244410D02072
:10099000D220CD22D422520500004927D620CC24D3
:1009A0004410D020D220CD22D42252050000C22AE9
:1009B00046234529A027D622522955270A0050232D
:1009C00053104937F4327236EF316B10D232761051
:1009D0003218B11CB01B31182D183116A0316F38E8
:1009E0007939E933683A2025C82A0A00D32AC32175
:1009F000C52953050001D32AC321C5295305000188
:100A00004927D620CC244410C327CD2641274405AE
:100A10000000F701F8012500290803102A18F7073C
:100A2000F70CF80CAA18F707F70CF80C2A19F707B7
:100A3000F70CF80CAA19F707F70CF80C2A1AF707A5
:100A4000F70CF80CAA1AF707F70CF80C2A1BF70793
:100A5000F70CF80CAA1BF707F70CF80C200008009D
:100A60002E008F1EC62E64008F1E332D22001D08FF
:100A70002000A90022001908F8002000A91C442D1C
:100A800022001D121D16200078082500A600260849
:100A9000403A200003195C2D3E3A03195C2D523A6E
:100AA0000319D02D263A03191F2E073A0319662E73
:100AB0002D3A0319662E692E25002608403C031D99
:100AC000632D7210642D721420006A082500A9009D
:100AD0001F30AA00200009258130780784002030CB
:100AE00085000318850A0008233C031D792D00307A
:100AF0007A2D01302500A80020006A082500A900F1
:100B00001F30AA002000092581307807840020309A
:100B100085000318850A0008023C031D912D003052
:100B2000922D0130250028040319CF2D20006A08DA
:100B30002500A9001F30AA00200009258130780770
:100B40008400203085000318850A013080002500CC
:100B5000A7012708023C031CCB2D20006A082500B2
:100B6000A9001F30AA0020000925013078072500C0
:100B7000A8002708A9000A30AA0020000925780843
:100B800025002807813E8400203085000318850A4F
:100B90008001A70AA92D2000EB01F0012500B72E46
:100BA0006A082500A9001F30AA002000092581300D
:100BB00078078400203085000318850A000B1D2E5D
:100BC0006B08013C031C072E6A082500A9001F3092
:100BD000AA0020000925013078072500A800200080
:100BE0006B082500A9000A30AA0020000925780812
:100BF000250028077007813E8400203085000318F7
:100C0000850A800101302000EB07F0011D2E6A08E3
:100C10002500A9001F30AA0020000925813078078F
:100C20008400203085000318850A023080000130DE
:100C3000EA076A08033C031CEA012500B72E6A088C
:100C40002500A9001F30AA0020000925813078075F
:100C50008400203085000318850A000B642E6A0882
:100C60002500A9001F30AA002000092501307807BF
:100C70002500A80020006B082500A9000A30AA0062
:100C8000200009257808250028077007813E840088
:100C9000203085000318850A800120006A0825009D
:100CA000A9001F30AA0020000925813078078400A0
:100CB000203085000318850A233080000130EA07C0
:100CC0006A08033C031CEA012500B72E2500B72E55
:100CD00020006A082500A9001F30AA00200009256D
:100CE000813078078400203085000318850A000BC6
:100CF000B62E6A082500A9001F30AA002000092589
:100D0000013078072500A80020006B082500A90005
:100D10000A30AA0020000925780825002807700756
:100D2000813E8400203085000318850A2608800053
:100D30007008093C031C9F2E0130F007B72E2000DD
:100D40006A082500A9001F30AA002000092581306B
:100D500078078400203085000318850A023080005F
:100D60000130EA076A08033C031CEA012500721CF3
:100D7000C32E260864002E000F1AC02E2500BA2E9E
:100D800022009A0025002000302D2E008F12200016
:100D900084312000372C24008C01F0308D00D830B5
:100DA0008C0000302000BB1801302500A600003068
:100DB00020003B1C0130250026040319E42E2100ED
:100DC000BF01BE01132F250000302000BB1B0130E6
:100DD0002500A600003020003B1F0130250026051D
:100DE0000319122F01302100BE070030BF3D200043
:100DF000BA08031D112FB908031D112F380821004F
:100E00003F020318052F2000112F031D0F2F200074
:100E1000370821003E0203180F2F2000112F200059
:100E20003B17250021002E001010200084312000E7
:100E3000372C502353104937F4327236EF316B1090
:100E4000D23276103218B11CB01B31182D18311661
:100E5000A0316F387939E933683A2025C82A0A0069
:100E60002300B2013008320203184C2F32082E073B
:100E7000840000302F3D850031083207B600360867
:100E800030009A0070309B001E171E141C081E13A1
:100E900080002300B20A322F2000080023006708D8
:100EA0000739F700670CF800F80CF80C1F30F8054C
:100EB00078086907840000306A3D8500F801F80A67
:100EC000F70A632FF80DF70B622FE80803196B2F51
:100ED000780880046E2FF809780880052000080043
:100EE000213085003730840000080319882F0A302C
:100EF000F800BF30F7006400F70B7B2FF80B792F59
:100F00005E30F700F70B822F852F6400800B772F60
:100F100008009130930098149300181523002E08B0
:100F2000E700E801EA010A30E90020004E2723002B
:100F30002E08E700E801EA010530E90020004E270D
:100F400023002D088C000F0C031CA32F0330E70097
:100F50002000702723002E08E7000130E800EA0196
:100F60000A30E90020004E2723002E08E700E801A0
:100F7000EA010530E90020004E27080023006A0836
:100F8000EB006908EA006808E900E8016808640203
:100F9000F7006908653BF8006A08663BF9006B08D2
:100FA000673BFA00EF007908EE007808ED0077085B
:100FB000EC006C08F7006D08F8006E08F9006F0887
:100FC000FA0090312000082A24006508DD07660831
:100FD000DE3D6708DF3D6808E03D6908E13D6A08DD
:100FE000E23D6B08E33D6C08E43D20005D30F80015
:100FF0000230F9000800FF3FFF3FFF3FFF3FFF3F88
:101000009130930098149300181523002E08E700E0
:10101000E801EA010A30E900803120004E278831DA
:1010200023002E08E700E801EA010530E9008031DD
:1010300020004E27883123002D088C000F0C031C44
:101040001E280C088C010F0C031C23280C08B00070
:101050000C088C010F0C031C2A280C08AF002E086A
:10106000E7000130E800EA010A30E90080312000A1
:101070004E27883123002E08E700E801EA010530F9
:10108000E900803120004E27883123002F08F80026
:101090003008F900200008001E302300AD00713038
:1010A000AE0080312000892788311E302300AD003A
:1010B0007230AE008031200089278831A0302300B3
:1010C000AD007130AE00200000207908CB00780818
:1010D000CA00A2302300AD007130AE002000002015
:1010E0007908CD007808CC00A4302300AD00713021
:1010F000AE00200000207908CF007808CE00A6308E
:101100002300AD007130AE00200000207908D1002E
:101110007808D000A8302300AD007130AE00200068
:1011200000207908D3007808D200AA302300AD004F
:101130007130AE00200000207908D5007808D40076
:10114000AC302300AD007130AE00200000207908E3
:10115000D7007808D600AE302300AD007130AE0065
:10116000200000207908D9007808D800A03023009A
:10117000AD007230AE00200000207908DB00780856
:10118000DA00A2302300AD007230AE002000002053
:101190007908DD007808DC00A4302300AD0072304F
:1011A000AE00200000207908DF007808DE00A630BD
:1011B0002300AD007230AE00200000207908E1006D
:1011C0007808E000A8302300AD007230AE002000A7
:1011D00000207908E3007808E200AA302300AD007F
:1011E0007230AE00200000207908E5007808E400A5
:1011F000AC302300AD007230AE0020000020790832
:10120000E7007808E600AE302300AD007230AE0093
:10121000200000207908E9007808E8000800FF3085
:101220003E00CF0020302300AE000A30AD00113068
:10123000AF00FF3030009A0070309B001E171E1464
:101240001C081E13AB3C031966292300B0012F08AC
:10125000300203184F2930082D07840000302E3D3E
:1012600085000008B1000B08F7008B133008300030
:101270009A0070309B002300310830009C001E173C
:101280001E1555309F00AA309F009E149E184629B7
:101290001E111E1377088B042300B00A27290B08A0
:1012A000F7008B13FF3030009A0070309B00AB309A
:1012B0009C001E171E1555309F00AA309F009E14DB
:1012C0009E1860291E111E1377088B0420302300FE
:1012D000AF000A30AE001130B000B1018031200003
:1012E0003027883130000C08640020004C20023088
:1012F0002400910037308E008F0190012E001A14C7
:1013000030000C0864002300AD012D08033C031CD1
:10131000DC292000A8018B1BA8178B1323002D08A4
:101320002500A9001F30AA0080312000092588313E
:10133000A81B8B17813078078400203085000318A4
:10134000850A80012300AE012E08023C031CDA2925
:101350002000A8018B1BA8178B1323002D08250044
:10136000A9001F30AA008031200009258831A81B60
:101370008B17013078072300B0002000A8018B1BD9
:10138000A8178B1323002E082500A9000A30AA00F5
:101390008031200009258831A81B8B17780823008D
:1013A0003007813E8400203085000318850A8001C3
:1013B000AE0AA429AD0A85292000EA01EB01F0015B
:1013C000F1012E00991630000C08640098312000BD
:1013D000922F0B088B1330001E131E140000000008
:1013E000891B8B171C087F3903193F2A2300B7007C
:1013F00030001A082300B80030001B082300B90091
:10140000370864002E000F1A072A2300012A220041
:101410009A002300380830009A0023003908300071
:101420009B000B088B131E131E1400000000891B69
:101430008B171C0D1D0D7F3903193F2A2300B700A0
:1014400030001A082300B80030001B082300B90040
:10145000370864002E000F1A2F2A2300292A2200A1
:101460009A002300380830009A0023003908300021
:101470009B009A0A03199B0A2000E92930002000EA
:101480000800913093009814930018152300620807
:10149000E700E801EA010A30E900803120004E2728
:1014A000883123006208E700E801EA010530E9001D
:1014B000803120004E278831230061086007E70053
:1014C00067088C000F0C031C622A40306002F73E54
:1014D0000318AC2A093E2000152B64001D302300A0
:1014E000E7001F30E8000230E802031C842A2130A4
:1014F00085003830840000080319842A822A802A53
:10150000812A6400800B7F2AE70B712AAC2A033002
:101510002300E70080312000702788312300AC2AA7
:1015200004302300E7008031200070278831230039
:10153000AC2A06302300E700803120007027883174
:101540002300AC2A0A302300E700803120007027F6
:1015500088312300AC2A23006208E7000130E8004C
:10156000EA010A30E900803120004E27883123004B
:101570006208E700E801EA010530E9008031200057
:101580004E27883123006208E700E801EA010A30AB
:10159000E900803120004E27883123006208E700EF
:1015A000E801EA010530E900803120004E2788314A
:1015B00023000C088C010F0C031CDB2AE6010C082D
:1015C0008C010F0C031CE12A0C08E5000C088C01AF
:1015D0000F0C031CE82A0C08E4000C088C010F0C0B
:1015E000031CEF2A0C08E3006208E7000130E80062
:1015F000EA010A30E900803120004E2788312300BB
:101600006208E700E801EA010530E90080312000C6
:101610004E27883123006308F7006408F800650846
:10162000F9006608FA00200008000A148A140A115A
:1016300082076D2AAB2A872AAB2A902AAB2A992ADD
:10164000AB2AA22A2400C901C801C701C601CD01E5
:10165000CC01CB01CA014508E0004408DF00430883
:10166000DE004208DD00E01F3B2BE801E701FF3010
:10167000E600E5003F2BE801E701E601E50160082F
:10168000E4005F08E3005E08E2005D08E10061300D
:10169000F8000230F9007908FA00780884007A0826
:1016A00085000830F800213087006E308600120077
:1016B0001E00F80B572BD60156081F3C031CB42BF9
:1016C0003E080139D800D901DA01DB01580BA62BFD
:1016D000D908031DA62BDA08031DA62BDB08031D62
:1016E000A62B4608DD004708DE004808DF00490851
:1016F000E0004A08E1004B08E2004C08E3004D0816
:10170000E4004E08E5004F08E6005008E7005108E5
:10171000E8005208E9005308EA005408EB005508B5
:10172000EC0080312000E42788317908FA0078083D
:1017300084007A0885000830F80021308700663080
:10174000860012001E00F80BA12B2400CE35CF0D11
:10175000D00DD10DD20DD30DD40DD50DC136C00C89
:10176000BF0CBE0CD60A5C2B4630F8000230F900E4
:10177000200008002400BD0100390319C12B0130ED
:10178000BD00BE013C083E020318D62BBD08031D58
:10179000CB2B0310CC2B0314BB0CBA0CB90CB80C1C
:1017A000B70CB60CB50CB40CBE0AC22B3430F80022
:1017B0000230F90020000800230067082400C1005F
:1017C000230066082400C000230065082400BF0031
:1017D000230064082400BE0023006B082400C50019
:1017E00023006A082400C400230069082400C30001
:1017F000230068082400C200200022237908FA0090
:10180000780884007A0885000830F80021308700C5
:101810004030860012001E00F80B0A2C240020081D
:10182000B4002108B5002208B6002308B700240838
:10183000B8002508B9002608BA002708BB001730F1
:10184000BC002000BA237908FA00780884007A08DE
:1018500085000830F80021308700403086001200F3
:101860001E00F80B2F2C2400AB01AA010730A900A1
:10187000D030A800AF01AE01AD01AC012008DD0001
:101880002108DE002208DF002308E0002408E10030
:101890002508E2002608E3002708E4002808E50000
:1018A0002908E6002A08E7002B08E8002C08E900D0
:1018B0002D08EA002E08EB002F08EC0080312000F4
:1018C000E42788317908FA00780884007A088500CE
:1018D0000830F800213087004030860012001E00DA
:1018E000F80B6E2C24002008F7002108F8002208CD
:1018F000F9002308FA00903120003B2A2400C0019F
:10190000BF01BE01BD013808BC003708BB00360866
:10191000BA003508B9003930F8000230F90020006B
:1019200008002400BD013C083D020318A12CB43579
:10193000B50DB60DB70DB80DB90DBA0DBB0DBD0A7D
:10194000932C3430F8000230F90020000800230006
:10195000660EF700F030F7057708043E2A3E840053
:10196000203085000318850A01310008FA003F3154
:101970000008EC007A08ED00EE01EF016F0824008A
:10198000B80023006E082400B70023006D0824006F
:10199000B60023006C082400B50020007E247908DE
:1019A000FA00780884007A0885000830F8002130B1
:1019B00087004030860012001E00F80BDB2C24004C
:1019C0002008B4002108B5002208B6002308B7009B
:1019D0002408B8002508B9002608BA002708BB006B
:1019E0001130BC00200091247908FA0078088400A6
:1019F0007A0885000830F8002130870040308600E2
:101A000012001E00F80B002D2300660EF700F030C8
:101A1000F7057708083E2A3E840020308500031829
:101A2000850A01310008FA003F310008EC007A080D
:101A3000ED00EE01EF016F082400C10023006E08E5
:101A40002400C00023006D082400BF0023006C08A0
:101A50002400BE0023006A082400C5002300690892
:101A60002400C400230068082400C3002300670882
:101A70002400C200200022237908FA00780884009C
:101A80007A0885000830F800213087004830860049
:101A900012001E00F80B482D24002808B400290865
:101AA000B5002A08B6002B08B7002C08B8002D088E
:101AB000B9002E08BA002F08BB000630BC00200079
:101AC000BA237908FA00780884007A08850008307B
:101AD000F800213087004830860012001E00F80B05
:101AE0006D2D24002808DD002908DE002A08DF000B
:101AF0002B08E0002C08E1002D08E2002E08E3008E
:101B00002F08E4002008E5002108E6002208E7008D
:101B10002308E8002408E9002508EA002608EB006D
:101B20002708EC0080312000E42788317908FA008A
:101B3000780884007A0885000830F8002130870092
:101B40004830860012001E00F80BA22D2830F80045
:101B50000230F9009031782A24003708C100360895
:101B6000C0003508BF003408BE003708C50036087D
:101B7000C4003508C3003408C200200022237908BD
:101B8000FA007808840079088500F801F901080056
:101B90002300E91BDB2DE908031DE82EE808031DDF
:101BA000E82E6708073C031CE82E031DDB2D6608A2
:101BB000CF3C031CE82ED0306602EC000730673BB8
:101BC000ED000030683BEE000030693BEF00240080
:101BD000B70023006E082400B60023006D0824001F
:101BE000B50023006C082400B4002000AC2579085F
:101BF000FA00780884007A0885000830F80021305F
:101C000087004030860012001E00F80B032E2400CF
:101C10002308C1002208C0002108BF002008BE0020
:101C2000C501C401C3013D30C20020002223790850
:101C3000FA00780884007A0885000830F80021301E
:101C400087004030860012001E00F80B232E24006F
:101C50002008B4002108B5002208B6002308B70008
:101C60002408B8002508B9002608BA002708BB00D8
:101C70000430BC002000BA237908FA0078088400F8
:101C80007A0885000830F80021308700403086004F
:101C900012001E00F80B482E2300E91FE72E6908EA
:101CA000FF3C031CE72E031D652E6808FF3C031C48
:101CB000E72E031D652E6708FA3C031CE72E031D63
:101CC000652E6608233C031CE72EDC306607EC001B
:101CD0000530673DED000030683DEE000030693DA5
:101CE000EF002400B70023006E082400B600230094
:101CF0006D082400B50023006C082400B400200007
:101D0000AC257908FA00780884007A088500083044
:101D1000F800213087004830860012001E00F80BC2
:101D20008D2E24002B08C1002A08C0002908BF00FE
:101D30002808BE00C501C401C3010F30C200200045
:101D400022237908FA00780884007A088500083090
:101D5000F800213087004830860012001E00F80B82
:101D6000AD2E24002808DD002908DE002A08DF0047
:101D70002B08E0002C08E1002D08E2002E08E3000B
:101D80002F08E4002008E5002108E6002208E7000B
:101D90002308E8002408E9002508EA002608EB00EB
:101DA0002708EC0080312000E42788317908FA0008
:101DB000780884007A0885000830F8002130870010
:101DC0004030860012001E00F80BE22E2300F22E97
:101DD0002400A301A201A101A001A701A601A50160
:101DE000A40123002030F8000230F90090312000D7
:101DF000952A2300660EF700F030F7057708023EBB
:101E00002A3E8400203085000318850A013100082D
:101E1000FA003F310008EC007A08ED00EE01EF0116
:101E20006F082400B80023006E082400B7002300C8
:101E30006D082400B60023006C082400B5002000C3
:101E40007E247908FA00780884007A088500083032
:101E5000F800213087004030860012001E00F80B89
:101E60002D2F24002008B4002108B5002208B60058
:101E70002308B7002408B8002508B9002608BA00CE
:101E80002708BB001030BC00200091247908FA001C
:101E9000780884007A0885000830F800213087002F
:101EA0004030860012001E00F80B522F2300660EF1
:101EB000F700F030F7057708063E2A3E8400203010
:101EC00085000318850A01310008FA003F31000837
:101ED000EC007A08ED00EE01EF016F082400C1006C
:101EE00023006E082400C00023006D082400BF00FA
:101EF00023006C082400BE0023006A082400C500EB
:101F0000230069082400C400230068082400C300DB
:101F1000230067082400C200200022237908FA0069
:101F2000780884007A0885000830F800213087009E
:101F30004830860012001E00F80B9A2F2400280853
:101F4000B4002908B5002A08B6002B08B7002C08F1
:101F5000B8002D08B9002E08BA002F08BB000730C2
:101F6000BC002000BA237908FA00780884007A08B7
:101F700085000830F80021308700483086001200C4
:101F80001E00F80BBF2F24002808DD002908DE0002
:101F90002A08DF002B08E0002C08E1002D08E200F1
:101FA0002E08E3002F08E4002008E5002108E600E1
:101FB0002208E7002308E8002408E9002508EA00D1
:101FC0002608EB002708EC0080312000E427883148
:101FD0007908FA00780884007A0885000830F8004B
:101FE000213087004830860012001E00F80BF42FC5
:101FF0002830F8000230F9009031162BFF3FFF3FE8
:102000002300E91B1328E908031D0829E808031D1C
:1020100008296708073C031C0829031D13286608C4
:10202000CF3C031C0829D0306602EC000730673B28
:10203000ED000030683BEE000030693BEF0024000B
:10204000B70023006E082400B60023006D082400AA
:10205000B50023006C082400B40088312000AC25B2
:1020600090317908FA00780884007A0885000830F1
:10207000F800213087004030860012001E00F80B67
:102080003D2824002008B4002108B5002208B6002D
:102090002308B7002408B8002508B9002608BA00AC
:1020A0002708BB000130BC0088312000912490310A
:1020B0007908FA00780884007A0885000830F8006A
:1020C000213087004030860012001E00F80B642883
:1020D0002300E91F07296908FF3C031C0729031D8A
:1020E00081286808FF3C031C0729031D8128670815
:1020F000FA3C031C0729031D81286608233C031CA6
:102100000729DC306607EC000530673DED00003044
:10211000683DEE000030693DEF002400B700230069
:102120006E082400B60023006D082400B5002300CB
:102130006C082400B40088312000AC259031790867
:10214000FA00780884007A0885000830F800213009
:1021500087004830860012001E00F80BAB282400D0
:102160002B08C1002A08C0002908BF002808BE00AB
:10217000C501C401C3010830C200883120002223F8
:1021800090317908FA00780884007A0885000830D0
:10219000F800213087004830860012001E00F80B3E
:1021A000CD2824002008DD002108DE002208DF0001
:1021B0002308E0002408E1002508E2002608E300E7
:1021C0002708E4002808E5002908E6002A08E700B7
:1021D0002B08E8002C08E9002D08EA002E08EB0087
:1021E0002F08EC0080312000E42790317908FA00B4
:1021F000780884007A0885000830F80021308700CC
:102200004030860012001E00F80B0229230012291C
:102210002400A301A201A101A001A701A601A5011B
:10222000A40123002030F8000230F9009031200092
:10223000322B2400AB01AA01A901A801AF01AE0114
:10224000AD01AC012300EA016A081F3C031C7F2991
:1022500066080139EC00ED01EE01EF016C0B6F290E
:10226000ED08031D6F29EE08031D6F29EF08031DFC
:102270006F2924002808DD002908DE002A08DF0075
:102280002B08E0002C08E1002D08E2002E08E300F6
:102290002F08E4002008E5002108E6002208E700F6
:1022A0002308E8002408E9002508EA002608EB00D6
:1022B0002708EC0080312000E42790317908FA00EB
:1022C000780884007A0885000830F80021308700FB
:1022D0004830860012001E00F80B6A292300E936F8
:1022E000E80CE70CE60C2400A035A10DA20DA30D0F
:1022F000A40DA50DA60DA70D2300EA0A2429283058
:10230000F8000230F90090312000CE2B2300330872
:10231000E0001030E1003208E20088312000412264
:1023200090317A082300B7007908B6007808B50024
:102330007708B4003308E000E1013208E200883198
:102340002000412290317A082300BB007908BA00AE
:102350007808B9007708B8003208713C031DB2292B
:10236000B201B4290130B200320DF700F70DF70DBC
:10237000F830F70577084C3E8400203085000318BC
:10238000850A380880003908813F3A08823F3B08B7
:10239000833F320DF700F70DF70DF830F70577089A
:1023A000043E4C3E8400203085000318850A340822
:1023B00080003508813F3608823F3708833F320E60
:1023C000F700F030F70577080A3E2A3E84002030F7
:1023D00085000318850A01310008FA003F31000822
:1023E000E0007A08E100E201E3013708E70036087F
:1023F000E6003508E5003408E4006308EB006208F5
:10240000EA006108E9006008E80080312000BE2F82
:1024100090317A082300BF007908BE007808BD001B
:102420007708BC00320EF700F030F70577080C3E55
:102430002A3E8400203085000318850A01310008F7
:10244000FA003F310008E0007A08E100E201E30110
:102450003F08E7003E08E6003D08E5003C08E400D0
:102460006308EB006208EA006108E9006008E80020
:1024700088312000DC2B90317A082300C3007908D2
:10248000C2007808C1007708C000C701C601C501B5
:10249000C401B808031D5A2AB908031D5A2ABA08EC
:1024A000031D5A2ABB08031D5A2AC701C601C501CC
:1024B000C4015D2D380F6B2A390F6B2A3A0F6B2A36
:1024C000BB08031D6B2AC7010F30C6004230C50090
:1024D0003F30C4005D2D3208E6003F08EA003E08A8
:1024E000E9003D08E8003C08E70088312000A72CFF
:1024F00090317908FA00780884007A08850008305D
:10250000F800213087001830860012001E00F80BFA
:10251000852A23004308E9004208E8004108E70053
:102520004008E60088312000C82D90317908FA0073
:10253000780884007A08850000082300E000013153
:102540000008E10001310008E20001310008E30069
:1025500001310008E40001310008E5000131000804
:10256000E60001310008E700393148082400DD00A9
:10257000230049082400DE0023004A082400DF006D
:1025800023004B082400E00023004C082400E10055
:1025900023004D082400E20023004E082400E3003D
:1025A00023004F082400E400230060082400E50015
:1025B000230061082400E600230062082400E700ED
:1025C000230063082400E800230064082400E900D5
:1025D000230065082400EA00230066082400EB00BD
:1025E000230067082400EC0080312000E4279031AC
:1025F0007908FA00780884007A0885000830F80025
:10260000213087001830860012001E00F80B042BC2
:1026100023003208E6003F08EA003E08E9003D08D2
:10262000E8003C08E70088312000F92E9031790855
:10263000FA00780884007A0885000830F800213014
:1026400087002030860012001E00F80B232B230089
:102650004308E9004208E8004108E7004008E600B6
:10266000200000287908FA00780884007A0885009C
:1026700000082300E00001310008E10001310008FA
:10268000E20001310008E30001310008E4000131FB
:102690000008E50001310008E60001310008E7000C
:1026A000393150082400DD00230051082400DE00E9
:1026B000230052082400DF00230053082400E00018
:1026C000230054082400E100230055082400E20000
:1026D000230056082400E300230057082400E400E8
:1026E000230060082400E500230061082400E600C0
:1026F000230062082400E700230063082400E800A8
:10270000230064082400E900230065082400EA008F
:10271000230066082400EB00230067082400EC0077
:1027200080312000E42790317908FA00780884008D
:102730007A0885000830F8002130870020308600B4
:1027400012001E00F80BA02B23003B08E9003A08FA
:10275000E8003908E7003808E60050082400A00027
:10276000230051082400A100230052082400A200E5
:10277000230053082400A300230054082400A400CD
:10278000230055082400A500230056082400A600B5
:10279000230057082400A700200019297908FA000F
:1027A000780884007A0885000830F8002130870016
:1027B0002830860012001E00F80BDA2B2300580880
:1027C0002400B400230059082400B50023005A084F
:1027D0002400B60023005B082400B70023005C0837
:1027E0002400B80023005D082400B90023005E081F
:1027F0002400BA0023005F082400BB001530BC0091
:1028000088312000BA2390317908FA0078088400D2
:102810007A0885000830F8002130870028308600CB
:1028200012001E00F80B102C07302300DD05DE011E
:10283000DF014808E6004908E7004A08E8004B08BD
:10284000E9004C08EA004D08EB004E08EC004F0888
:10285000ED00EE016E08073C031C4F2C36306E076E
:10286000F8002130FA000318FA0A78082400A800BA
:102870007A08A900363023006E07840021308500D5
:102880000318850A0008FF3C2400AA0029088500D7
:10289000280884002A0880002300EE0A2A2C24003D
:1028A000A301A201A1010130A000A701A601A50179
:1028B000A401230066082400DD002300670824002B
:1028C000DE00230068082400DF00230069082400DC
:1028D000E00023006A082400E10023006B082400C4
:1028E000E20023006C082400E30023006D082400AC
:1028F000E4002008E5002108E6002208E70023089C
:10290000E8002408E9002508EA002608EB0027086B
:10291000EC0080312000E42790317908FA00780833
:1029200084007A0885000830F800213087003630AE
:10293000860012001E00F80B992CE630F8000130DA
:10294000F9007908FA00780884007A0885000830D0
:10295000F800213087001830860012001E00F80BA6
:10296000AD2C230058082400DD0023005908240062
:10297000DE0023005A082400DF0023005B08240047
:10298000E00023005C082400E10023005D0824002F
:10299000E20023005E082400E30023005F08240017
:1029A000E400230048082400E5002300490824002F
:1029B000E60023004A082400E70023004B08240017
:1029C000E80023004C082400E90023004D082400FF
:1029D000EA0023004E082400EB0023004F082400E7
:1029E000EC0080312000E42790317908FA00780863
:1029F00084007A0885000830F800213087002830EC
:102A0000860012001E00F80B012D23005808240038
:102A1000B400230059082400B50023005A082400FC
:102A2000B60023005B082400B70023005C082400E4
:102A3000B80023005D082400B90023005E082400CC
:102A4000BA0023005F082400BB000F30BC008831AF
:102A50002000BA2390317908FA00780884007A08B7
:102A600085000830F80021308700283086001200E9
:102A70001E00F80B372D23005B08C7005A08C6005C
:102A80005908C5005808C400C708031D592D460839
:102A90000E3C03185D2DFF3A031D592D4508413C9E
:102AA00003185D2DFF3A031D592D4408403C0318BF
:102AB0005D2DC701C601C501C4014408F7004508E2
:102AC000F8004608F9004708FA0020000800FD3029
:102AD00091003B108C1A3B14FD309100BB118C1BF4
:102AE000BB15FD309100BB100C1ABB14FD309100DA
:102AF0003B110C193B159216BB138D1ABB17713085
:102B00002300B2004830B300200086217A08BF00BD
:102B10007908BE007808BD007708BC007230230039
:102B2000B2004830B300200086217A08C30079083B
:102B3000C2007808C1007708C0003B18A32DBB165F
:102B40003B13F210F401BB1CA72D3B16AB2E310832
:102B50003F02031CBD2D031DBF2D30083E02031C88
:102B6000BD2D031DBF2D2F083D02031CBD2D031DD0
:102B7000BF2D3C082E02031CBF2D0030C02D01309C
:102B80002300B200200031084302031CD92D031D8D
:102B9000DB2D30084202031CD92D031DDB2D2F082D
:102BA0004102031CD92D031DDB2D40082E02031CFE
:102BB000DB2D0030DC2D01302300B2052000BF08E2
:102BC000031DF22D3E08033C031CF22D031DF42DC2
:102BD0003D080D3C031CF22D031DF42D3C083F3C29
:102BE0000318F42D0030F52D01302300B20520002C
:102BF000C308031D0B2E4208033C031C0B2E031DB0
:102C00000D2E41080D3C031C0B2E031D0D2E4008FC
:102C10003F3C03180D2E00300E2E01302300B2056C
:102C20002000BC08031D1D2EBD08031D1D2EBE085F
:102C3000031D1D2EBF0803191F2E0030202E01304A
:102C40002300B3002000C008031D2F2EC108031D60
:102C50002F2EC208031D2F2EC3080319312E00305A
:102C6000322E01302300330532040319A62E200032
:102C700043083F02031C632E031D4E2E42083E02F2
:102C8000031C632E031D4E2E41083D02031C632EC0
:102C9000031D4E2E3C0840020318632E40083C02E0
:102CA0002300AD00200041083D3B2300AE00200082
:102CB00042083E3B2300AF00200043083F3B230077
:102CC000B000762E20003C0840022300AD0020001A
:102CD0003D08413B2300AE0020003E08423B23005C
:102CE000AF0020003F08433B2300B0003008200025
:102CF0002D02031CA02E031D952E23002F0820005B
:102D00002C02031CA02E031D952E23002E0820004C
:102D10002B02031CA02E031D952E2A0823002D0232
:102D2000031C942E2000A02E20003B163B1B9C2E43
:102D3000FD30910096149F2EFD3091009610A42E28
:102D40003B12FD3091009610AB2E230020003B1269
:102D5000FD309100961000303B1D01302300B30080
:102D600000302000BB190130230033050319BA2EAF
:102D7000F214FE2E20003F083502031CD12E031D45
:102D8000D32E3E083402031CD12E031DD32E3D0842
:102D90003302031CD12E031DD32E3C08320203182C
:102DA000D32E0030D42E01302300B200200043087F
:102DB0003502031CED2E031DEF2E42083402031CC6
:102DC000ED2E031DEF2E41083302031CED2E031DD3
:102DD000EF2E400832020318EF2E0030F02E0130A3
:102DE000230032050319FD2E74080A3C0318FA2E3D
:102DF000F214FC2E0130F407FE2EF401F21C4E2FCB
:102E0000200035083F02031C172F031D192F34081B
:102E10003E02031C172F031D192F33083D02031C0C
:102E2000172F031D192F3C083202031C192F0030E5
:102E30001A2F01302300B200200035084302031C82
:102E4000332F031D352F34084202031C332F031D7B
:102E5000352F33084102031C332F031D352F400843
:102E60003202031C352F0030362F0130230032048C
:102E70000319432F730820003602031C412F013031
:102E8000F307452F2300F3012000730836020318CF
:102E90004D2FBB12FD309100961023009831200079
:102EA000A92F23004C08F700031030001E131E1436
:102EB000000000001C08800001319A0A03199B0AD7
:102EC000F70B572F200008002300BD01BE013A0870
:102ED000F8003B08FA00780830009A007A089B0056
:102EE000213085001930840001302300CC002000FF
:102EF00051272300C9080319FC2FBE013C083E02DC
:102F00000318AA2F0F303E07F8002130FA000318EB
:102F1000FA0A7808C9007A08CA003E083A07F80099
:102F200000303B3DFA00780830009A007A089B0098
:102F3000213085001B30840001302300CC002000AC
:102F4000512723004A088500490884004B08800067
:102F5000BE0A7E2F2130CA000F30C9003908CC00CC
:102F60003808CB004A08FA00490884007A0885002E
:102F70000008CD004C08FA004B0884007A08850050
:102F800000084D02031DDA2F4A08FA0049088400A0
:102F90007A0885008008031DD02F0030F800F02F3C
:102FA0004A08FA004908C90A0319CA0ACB0A0319D0
:102FB000CC0AB22F4A08FA00490884004A08850062
:102FC0000008CD004C08FA004B0884004C0885002E
:102FD00000084D020318EE2FFF30EF2F0130F800EC
:102FE000F808031DF62F3D08F800FE2FBD0A3C0827
:102FF000BA070030BB3D672FFF30F8002000080003
:10300000831806282130850022308400F701F8015A
:10301000F901FA012300D201D301D401D5014F08EF
:103020004E044D044C04031945282030D6000310EB
:10303000C80DC90DCA0DCB0DD20DD30DD40DD50DB4
:103040004F085502031D2E284E085402031D2E283A
:103050004D085302031D2E284C085202031C3F2822
:103060004C08D2024D08031C4D0FD3024E08031C1E
:103070004E0FD4024F08031C4F0FD5020314F70D57
:10308000F80DF90DFA0DD60B1728520880005308D9
:10309000813F5408823F5508833F20000800040800
:1030A0002300C0003B30C7009A30C600CA30C500BC
:1030B000C4010A30C2003808031DC0038314213044
:1030C0008500043084003708CB003608CA00350874
:1030D000C9003408C8004708CF004608CE0045089C
:1030E000CD004408CC00200000207808F708031D1C
:1030F00090282300380A4202031D802820009028CF
:103100004008031992280F3942020319892803182D
:10311000B328C01BB328401B92282030A8282000C9
:103120002300C00138084202031DA7287708C00009
:103130002E3064002E000F1A9F28230099282200A9
:103140009A0023004008F7002030C00500303030DE
:10315000F707770864002E000F1AB0282300AA286A
:1031600022009A00230083104708CB004608CA00BB
:103170004508C9004408C800CF01CE01CD010A307E
:10318000CC00200000207A082300C7007908C60080
:103190007808C5007708C400C20B5E28200008002C
:1031A000A8018B1BA8178B1371082500A9001F30DD
:1031B000AA008031200009259831A81B8B17013007
:1031C00078070A3E813EF8002030FA000318FA0A18
:1031D00078082300B0007A08B100B9003008B800C0
:1031E0003F30BB009430BA000830BC009031200062
:1031F0006427983178082300AE002E08013C031C98
:1032000032292E0DF700F70DFC30F70577081C3E2C
:103210008400203085000318850A0008B0000131C1
:103220000008B10001310008B20001310008B3000C
:103230003D31043084003308B7003208B60031084D
:10324000B5003008B4000230B80020004F200A302A
:1032500064002E000F1A2E292000282922009A002F
:10326000892923002E08023C031D7F290430840095
:1032700020003F082300B70020003E082300B600CE
:1032800020003D082300B50020003C082300B400C6
:103290000230B80020004F202C3064002E000F1A9E
:1032A000532920004D2922009A00203064002E006E
:1032B0000F1A5C292200562922009A00043084004B
:1032C000200043082300B700200042082300B60076
:1032D000200041082300B500200040082300B4006E
:1032E0000230B80020004F200A3064002E000F1A70
:1032F0007B292000752922009A0089292300543057
:1033000030009A0004309B0088312000E921983178
:103310002200A0312000482D04082300B8003B30D3
:10332000BF009A30BE00CA30BD00BC010A30BA00EE
:10333000831421308500043084003708CB00360820
:10334000CA003508C9003408C8003F08CF003E084D
:10335000CE003D08CD003C08CC00200000207808BD
:10336000F708031DCA2923003A08013A031DBA29A8
:103370002000CA2938080319CC290F393A02031949
:10338000C3290318D829B81BD829381BCC292030C9
:10339000CD2920002300B8013030F70777086400FA
:1033A0002E000F1AD5292300CF2922009A002300CE
:1033B00083103F08CB003E08CA003D08C9003C0806
:1033C000C800CF01CE01CD010A30CC002000002082
:1033D0007A082300BF007908BE007808BD0077088E
:1033E000BC00BA0B98292000080005082300BE0085
:1033F0000408BD00330EF038B900B907E23EBA0048
:10340000323EBC0033080F39BA07BA07BC07E93EA1
:10341000BB00BB07BB07320E0F39BB07BC07BB0D98
:10342000BC0DBC09BC0D32080F39BC07B90D073003
:10343000B8000A30BC07BB03031C1A2ABB07BA0337
:10344000031C1E2ABA07B903031C222AB907B803B2
:10345000031C262A213085000830840007303D05F2
:103460003D1384070030853D04080C3C031D3C2AB5
:103470000508213C03193D170008F700031D482AE1
:103480003D1B482A3D1A562ABD19482A20304B2A8E
:10349000BD153D123030F707770864002E000F1A73
:1034A000532A23004D2A22009A00230001313D1F98
:1034B000342A200008005D3030009A0004309B0060
:1034C00088312000E9219831413084006F082300C1
:1034D000B70020006E082300B60020006D0823000E
:1034E000B50020006C082300B40020008C210A30B5
:1034F00064002E000F1A7E2A2000782A22009A00EB
:1035000041308400210023082300B7002100220855
:103510002300B600210021082300B5002100200867
:103520002300B40020008C210A3064002E000F1A02
:103530009B2A2000952A22009A00663030009A00CB
:1035400004309B0088312000E921983101302300AC
:10355000AE002E08063C031CCF2A03102E0D2A3E77
:103560008400203085000318850A0008B00001316E
:103570000008B1003F31103084003108B30030083A
:10358000B2002000F5210A3064002E000F1ACA2A6A
:103590002000C42A22009A002300AE0AA92A6D3016
:1035A00030009A0004309B0088312000E9219831D6
:1035B00041308400210027082300B700210026089D
:1035C0002300B600210025082300B50021002408AF
:1035D0002300B40020008C210A3064002E000F1A52
:1035E000F32A2000ED2A22009A00413084002100B5
:1035F0002B082300B70021002A082300B600210071
:1036000029082300B500210028082300B400200069
:103610008C210A3064002E000F1A102B20000A2B78
:1036200022009A00763030009A0004309B008831E6
:103630002000E921983101302300AE002E08063C1D
:10364000031C442B03102E0D3A3E840020308500CD
:103650000318850A0008B00001310008B1003F31AD
:10366000103084003108B3003008B2002000F5218A
:103670000A3064002E000F1A3F2B2000392B220045
:103680009A002300AE0A1E2BA0312000482D2300F3
:103690004108F80140020318502B4008F7005C2B4A
:1036A000F7010830C200C00DF70D4108770203187A
:1036B000F700F80DC20B532B20000800A8018B1B4C
:1036C000A8178B1371082500A9001F30AA008031AC
:1036D000200009259831A81B8B17013078070A3E76
:1036E000813EF8002030FA000318FA0A7808230017
:1036F000B0007A08B100B9003008B8003F30BB0014
:103700006A30BA000830BC0090312000642798313C
:1037100078082300AE002E08003A200003199D2BE4
:10372000013A0319BC2B033A0319DB2B013A0319A5
:10373000FA2B073A0319542C722C043084002D08FC
:103740002300B70020002C082300B60020002B081F
:103750002300B50020002A082300B4000230B8007E
:1037600020004F200A3064002E000F1AB92B2000D1
:10377000B32B22009A007C2C0430840031082300F3
:10378000B700200030082300B60020002F082300D7
:10379000B50020002E082300B4000230B80020003D
:1037A0004F200A3064002E000F1AD82B2000D22B95
:1037B00022009A007C2C0430840035082300B700D6
:1037C000200034082300B600200033082300B50091
:1037D000200032082300B4000230B80020004F203F
:1037E0000A3064002E000F1AF72B2000F12B220064
:1037F0009A007C2C36082300B0001B30B100300842
:10380000C0006430C1002000472377082300B000C7
:1038100078083030031D132CB11C212CB119212C38
:10382000311A2030162CB11131123114F8077808F2
:1038300064002E000F1A1E2C2300182C22009A0060
:1038400023003008C0000A30C10020004723770859
:103850002300B00078083030031D342CB1193F2C00
:10386000311C3F2C311A2030F807780864002E00F4
:103870000F1A3C2C2300362C22009A0023003030F3
:10388000B007300864002E000F1A482C2300422C89
:1038900022009A000A3064002E000F1A512C2200D8
:1038A0004B2C22009A007C2C413084003A082300E3
:1038B000B700200039082300B60020003808230094
:1038C000B500200037082300B40020008C210A3006
:1038D00064002E000F1A6E2C2000682C22009A0023
:1038E0007C2C20007D3030009A0004309B00883111
:1038F0002000E92198312200A0312000482D23002A
:103900006D08EF006C082400A10023006B08240060
:10391000A00023006E08003C0318A82C24002108F6
:10392000FA00200884007A08850023006F0800024E
:10393000031DA12C24002008F8002108F900AC2C5C
:1039400023002400A00A0319A10A2300EE038A2CF5
:103950000030F800F9002400200008002030230087
:10396000C200BE01BF01C001C1013908FA00380818
:10397000F9003708F8003608F7000310771CCE2C42
:103980003A08BE073B0803183B0FBF073C08031863
:103990003C0FC0073D0803183D0FC107C10CC00C08
:1039A000BF0CBE0CFA0CF90CF80CF70CC20BBD2CBA
:1039B0002000080020302300391E3030BC003808B9
:1039C000F700B81FEB2CF709F70A7708B8002D307D
:1039D000BC00B91739143808C0006430C100200099
:1039E000472377082300B80030307807BD00380837
:1039F000C0000A30C1002000472330307707230081
:103A0000BF0030307807BE003C08F70030303D0280
:103A100003190E2DB914B91B3915222D3C08BD0010
:103A20002030BC0030303E0203191A2D3914B91B66
:103A3000B914222D031D3914031D222D3D08BE008B
:103A40002030BD003919292DB918332D39183D2DD5
:103A5000472D3C0864002E000F1A302D23002A2D1C
:103A600022009A0023003D0864002E000F1A3A2D10
:103A70002300342D22009A0023003E0864002E000B
:103A80000F1A442D23003E2D22009A0023003F08E8
:103A900064002E000F1A4E2D2300482D22009A009C
:103AA00020000800A8018B1BA8178B1371082500A4
:103AB000A9001F30AA008031200009259831A81BD9
:103AC0008B17013078070A3E813EF8002030FA005B
:103AD0000318FA0A78082300B0007A08B100B90088
:103AE0003008B8003F30BB002530BA000830BC00B9
:103AF000903120006427983178082300AE002E080A
:103B0000003A200003199D2D013A0319B12D033A03
:103B10000319C52D013A0319D92D073A0319ED2DC3
:103B2000013A0319012E033A0319152E013A03191C
:103B3000292E0F3A03193D2EAE2E00303B180130CE
:103B40002300B000B8001830B9002000DA240A3091
:103B500064002E000F1AAE2D2000A82D22009A001E
:103B6000B82E0030BB1901302300B000B800183067
:103B7000B9002000DA240A3064002E000F1AC22D8A
:103B80002000BC2D22009A00B82E00303B1A0130D4
:103B90002300B000B8001830B9002000DA240A3041
:103BA00064002E000F1AD62D2000D02D22009A007E
:103BB000B82E0030BB1A01302300B000B800183016
:103BC000B9002000DA240A3064002E000F1AEA2D12
:103BD0002000E42D22009A00B82E0030BB180130DE
:103BE0002300B000B8001830B9002000DA240A30F1
:103BF00064002E000F1AFE2D2000F82D22009A00DE
:103C0000B82E00303B1901302300B000B800183046
:103C1000B9002000DA240A3064002E000F1A122E98
:103C200020000C2E22009A00B82E00303B1B0130E1
:103C30002300B000B8001830B9002000DA240A30A0
:103C400064002E000F1A262E2000202E22009A003B
:103C5000B82E0030BB1B01302300B000B800183074
:103C6000B9002000DA240A3064002E000F1A3A2E20
:103C70002000342E22009A00B82E00303B1801306C
:103C80002300B00000302000BB1901302300B10038
:103C9000003020003B1A01302300B2000030200029
:103CA000BB1A01302300B30000302000BB180130E4
:103CB0002300B400003020003B1901302300B50080
:103CC000003020003B1B01302300B60000302000F4
:103CD000BB1B01302300B7003008B8001830B90012
:103CE0002000DA2423003108B8001830B900200081
:103CF000DA2423003208B8001830B9002000DA2492
:103D000023003308B8001830B9002000DA2423005B
:103D10003408B8001830B9002000DA242300350830
:103D2000B8001830B9002000DA2423003608B800A3
:103D30001830B9002000DA2423003708B800183002
:103D4000B9002000DA240A3064002E000F1AAA2ECF
:103D50002000A42E22009A00B82E2000CD30300082
:103D60009A0004309B0088312000E921983122001C
:103D7000A0312000482D2300B101B001AF01AE01F8
:103D80002030B300FE30B20030009B012B309A008F
:103D9000230033088500320884000430CC009031C1
:103DA0002000512798314130840023003108B700AA
:103DB0003008B6002F08B5002E08B40020008C2172
:103DC0000A3064002E000F1AE72E2000E12E220098
:103DD0009A00A0312000482D55303D008F00AA30B8
:103DE0008F000F101330C5001430C6001730CB0001
:103DF00014303E00A3001530A5001030A600553049
:103E00003D008F00AA308F000F14310092018F0106
:103E100091010530930010308D002000A90122008F
:103E20009F110C309B00A2309E0090309D0023001B
:103E3000901240308F00FF308D002A30900091307A
:103E40002000930093009300EA01EB01F001F101DF
:103E50002100BD01BC0172103E00B801C301CE01BA
:103E60003300910192019301900195019601970110
:103E70009401F210722F113400342A34B8340B3408
:103E8000003400345034C33400340034DC3405349E
:103E9000003400340A34B8340B34003400340234B3
:103EA00000344434003400340234003473340034B9
:103EB000003410340034AC343234313434343334DC
:103EC000363435343834373440343934423441347C
:103ED000443443340034453402340034BE340034B6
:103EE000003400341F3085003B30840085171200F9
:103EF000F700003A03198C2F1200F800F81B842FEA
:103F00000F39870012008600781B1200781F1200FC
:103F10001E00F70B862F772F30000C0864008831C5
:103F200020000F299831C0308B0430000C08640049
:103F300019309A0007309B0088312000E921983120
:103F400088314C20983130000C08640090312000FA
:103F5000672D983130000C086400A0312000272C18
:103F6000983130000C0864002000A02F6300FF3F50
:103F7000FF3FFF3FFF3FFF3FFF3FFF3FFF3FFF3F51
:10400000A8018B1BA8178B1371082500A9001F306E
:10401000AA00803120000925A031A81B8B17013090
:1040200078070A3E813E2300B6002030B70003180F
:10403000B70A3708B9003608B8003F30BB006A300D
:10404000BA000830BC00903120006427A031780805
:104050002300AE002000A8018B1BA8178B1371084A
:104060002500A9001F30AA00803120000925A031B9
:10407000A81B8B1701307807143E813E2300B60041
:104080002030B7000318B70A3708B9003608B8005F
:104090002030BB00FF30BA000A30BC00C401C301AD
:1040A0003030C6003130C7003230C8003330C9006C
:1040B0003430CA003530CB003630CC003730CD003C
:1040C0003830CE003930CF006130D0006230D100BE
:1040D0006330D2006430D3006530D4006630D50040
:1040E0006730D6006830D7006930D8006A30D90010
:1040F0006B30DA006C30DB006D30DC006E30DD00E0
:104100006F30DE007030DF007130E0007330E100AE
:104110007430E2007530E3007630E4007730E5007B
:104120007830E6007930E7007A30E800E9013908B4
:10413000BE003808BD003E08FA003D0884007A0839
:1041400085000008203C031DA928BD0A0319BE0AEA
:104150009B283E08FA003D0884003E0885000008C0
:104160002D3C0319BD283E08FA003D0884003E0896
:10417000850000082B3C031DC8283E08FA003D08B6
:10418000BD0A0319BE0A84007A0885000008C92800
:104190002B30C50045082D3C0319D928BC1BD92854
:1041A0003C0BD328D928BC1BDB283C08243C031833
:1041B000DB282B2A6729BC08031930293C08103C4E
:1041C000031D02293E08FA003D0884007A08850094
:1041D0000008303C031D02293D0884003E0885008C
:1041E00001310008783C0319FE283D0884003E0890
:1041F000850001310008583C031D02290230BD072B
:104200000030BE3D3C08083C031D14293E08FA005E
:104210003D0884007A0885000008303C031D1429FD
:104220000130BD070030BE3D3C08023C031D2F2974
:104230003E08FA003D0884007A0885000008303CFA
:10424000031D2F293D0884003E0885000131000828
:10425000623C031D2F290230BD070030BE3D672997
:104260003E08FA003D0884007A0885000008303CCA
:1042700003193D290A30BC0067293D0884003E0827
:10428000850001310008783C03194F293D0884005E
:104290003E08850001310008583C031D56291030A6
:1042A000BC000230BD070030BE3D67293D088400D8
:1042B0003E08850001310008623C031D652902307B
:1042C000BC00BD070030BE3D67290830BC003E0879
:1042D000C0003D08BF003E08FA003D0884007A088F
:1042E00085000008303C031D7929BD0A0319BE0A68
:1042F0006B293E08FA003D0884003E08850000084E
:10430000EA00403C03188B296A085A3C031C8B299D
:104310006A0820388C296A08EA002130EC0016303F
:10432000EB006A08ED003C08EE00983120007F2485
:10433000A03179082300C2007808C100C108031D1C
:10434000A429C2080319232AFA013C08F700F71B25
:10435000FA03EA007A08EB004408ED004308EC0099
:104360006B08EF006A08EE006D086F0680392400C4
:10437000A1002300ED1FC129EC09ED09EC0A031986
:10438000ED0AEF1FC829EE09EF09EE0A0319EF0A3B
:1043900010302400A000F701FA012300ED0CEC0C12
:1043A000031CD8296E08F7070318FA0A6F08FA07E2
:1043B000FA0CF70CF90CF80C2400A00BCD29A11F66
:1043C000E629F809F909F80A0319F90A7908230016
:1043D000EB007808EA0016304102F7002130423B3A
:1043E000FA0077086A07F8006B08FA3D7808C300FE
:1043F0007A08C400BD0A0319BE0A3E08FA003D0847
:1044000084003E0885000008EA00403C03180F2A9B
:104410006A085A3C031C0F2A6A082038102A6A08C6
:10442000EA002130EC001630EB006A08ED003C0891
:10443000EE00983120007F24A03179082300C200CB
:104440007808C1009E293D083F02031D3C2A3E0812
:104450004002031D3C2A23003A083B040319382A72
:104460003A0884003B088500380880003908813FFD
:104470000030F800F9004C2A3A083B040319482A96
:104480003A0884003B0885003D0880003E08813FD3
:104490004308F8004408F900B401B3017908B200F8
:1044A0007808B1002E08003A20000319642A013A66
:1044B0000319CA2A033A0319372B013A03199D2B12
:1044C000073A0319CB2B1B2C23003408B9003308FF
:1044D000B8003208B7003108B600BD01BC01BB010D
:1044E0006430BA0098312000AE24A0317A0823004D
:1044F000B4007908B3007808B2007708B100B408B6
:10450000031D8F2AB308031D8F2A32080D3C031C9C
:104510008F2A031D912A3108483C0318912A003044
:10452000922A0130B600B408031DA22AB308031D65
:10453000A22AB208031DA22A3108643C031CA22A45
:104540000030A32A013036050319C02A34082000A0
:10455000AD00230033082000AC0023003208200007
:10456000AB00230031082000AA00873030009A00F9
:1045700004309B0088312000E921A031C92A2300A2
:104580008C3030009A0004309B0088312000E921F3
:10459000A031252C23003408B9003308B8003208B4
:1045A000B7003108B600BD01BC01BB016430BA00E0
:1045B00098312000AE24A0317A082300B400790895
:1045C000B3007808B2007708B100B408031DF82AD8
:1045D000B308031DF82A3208C23C0318F62AFF3A32
:1045E000031DF82A31084F3C031CF82A0030F92A31
:1045F0000130B600B408031D0D2B3308013C031C29
:104600000D2B031D0F2B32085F3C031C0D2B031DCC
:104610000F2B31088F3C03180F2B0030102B01306B
:10462000360503192D2B34082000B1002300330870
:104630002000B000230032082000AF002300310822
:104640002000AE00933030009A0004309B00883187
:104650002000E921A031362B2300983030009A0049
:1046600004309B0088312000E921A031252C230053
:104670003408B9003308B8003208B7003108B60072
:10468000BD01BC01BB016430BA0098312000AE24EA
:10469000A0317A082300B4007908B3007808B2008A
:1046A0007708B100B408031D612BB308031D612B0B
:1046B000B208031D612B3108633C031C612B0030E1
:1046C000622B0130B600B408031D732BB308031D21
:1046D000732B3208273C031C732B031D752B3108E9
:1046E0000F3C0318752B0030762B0130360503196B
:1046F000932B34082000B500230033082000B400B9
:10470000230032082000B300230031082000B2004B
:104710009F3030009A0004309B0088312000E9214E
:10472000A0319C2B2300A43030009A0004309B0061
:1047300088312000E921A031252C2300B408031D75
:10474000AA2BB308031DAA2B3208003C031CAA2B7A
:104750000030AB2B013000390319C12B2000B5010B
:10476000B401B301230031082000B200AB303000A7
:104770009A0004309B0088312000E921A031CA2B27
:104780002300B03030009A0004309B0088312000B4
:10479000E921A031252C2300B408031DDF2BB30829
:1047A000031DDF2B3208023C0318DD2BFF3A031DEB
:1047B000DF2B3108E83C031CDF2B0030E02B0130FD
:1047C000B600B408031DF12BB308031DF12B32080A
:1047D000273C031CF12B031DF32B31080F3C03185E
:1047E000F32B0030F42B013036050319112C34085B
:1047F0002000BA00230033082000B900230032084B
:104800002000B800230031082000B700B730300086
:104810009A0004309B0088312000E921A0311A2C35
:104820002300BC3030009A0004309B008831200007
:10483000E921A031252CC33030009A0004309B00C0
:1048400088312000E921A031252CA031482DA80174
:104850008B1BA8178B1371082500A9001F30AA0015
:10486000803120000925A031A81B8B1781307807E3
:104870008400203085000318850A0008023C031DCF
:10488000622CD73030009A0004309B008831200021
:10489000E921A031A8018B1BA8178B1371082500F3
:1048A000A9001F30AA00803120000925A031A81BD3
:1048B0008B17813078078400203085000318850A23
:1048C00080016A2DA8018B1BA8178B137108250086
:1048D000A9001F30AA00803120000925A031A81BA3
:1048E0008B17813078078400203085000318850AF3
:1048F0000008233C031D602DA8018B1BA8178B13F8
:1049000071082500A9001F30AA0080312000092568
:10491000A031A81B8B1701307807813E2300AE0021
:104920002030AF000318AF0A2F08B9002E08B800D6
:104930003F30BB00AE30BA000830BC0090312000E0
:104940006427A03178082300AD002D08003A20002C
:104950000319C62C013A0319CA2C033A0319CE2CA9
:10496000013A0319D22C073A0319D42C013A03193E
:10497000D82C033A0319E22C013A0319E62C0F3A1A
:104980000319FC2C013A03193A2D3F2D9831D028F8
:10499000A031482D98315B2AA031482D98315E2BEB
:1049A000A031482D0028482D9831522DA031482D96
:1049B000DF3030009A0004309B0088312000E9216C
:1049C000A031482D9831BB2EA031482D2030230036
:1049D000AF000A30AE001130B000B10180312000CC
:1049E0003027A031F63030009A0004309B00883127
:1049F0002000E921A031482D20302300AF000A30EB
:104A0000AE001130B000B101B2013008320203181B
:104A1000302D31083207B40032082E0784000030F0
:104A20002F3D85000008B5000B08F7008B133408F4
:104A300030009A0070309B002300350830009C0045
:104A40001E171E1555309F00AA309F009E149E18F9
:104A5000272D1E111E1377088B042300B20A052D83
:104A6000FB3030009A0004309B0088312000E9219F
:104A7000A031482D0100003A031D0030482D0030C0
:104A800030009A0005309B0088312000E921A031D8
:104A9000A8018B1BA8178B1371082500A9001F30D4
:104AA000AA00803120000925A031A81B8B17813076
:104AB00078078400203085000318850A80016A2D5C
:104AC0006A08710203196A2D0130F1077108033C6D
:104AD000031CF10164302300E700803120007027BF
:104AE000A0319831B02FFF3FFF3FFF3FFF3FFF3F17
:104AF000FF3FFF3FFF3FFF3FFF3FFF3FFF3FFF3FC6
:0A7E40003F003F003F003F003F00FD
:067E4A004F3450344534B2
:107E50004E34003400340034003454345534533438
:107E6000003400340034003400345034453451348C
:107E70000034003400340034003456344F344B3472
:107E800000340034003400340034473456344F3466
:107E90000034003400340034003447345634433462
:107EA0000034003400340034003447345634543441
:107EB0000034003400340034003447345634003485
:107EC0000034003400340034003461346C346C34D9
:107ED0000034003450346434693466346634003419
:107EE00000340034503465344D3469346E34003419
:107EF00000340034503464344D3461347834003408
:107F0000003400345034643443346E3474340034F8
:107F10000034003474345F346F3475347434003496
:107F20000034003400340034503431340034003430
:107F3000003400340034003450343234003400341F
:107F4000003400340034003461346C346C34003458
:107F500000340034003400340034003467345034CA
:107F600000340034003400340034003467345234B8
:107F700061347734003400340034003467345434CE
:107F80006834003400340034003400347334543422
:107F9000683400340034003400340034673453341F
:107FA000743461347434003400340034673472340F
:107FB0000034003400340034003400346734733447
:107FC0000034003400340034003400346C346F3436
:107FD0006134643400340034003400347334613468
:107FE000763465340034003400340034723465343F
:107FF00062346F346F34743400340034003400342D
:020000040001F9
:0A000E009C3FFD3FFF3FFF1FFF3F37
:00000001FF
;PIC16F18856
;CRC=0BE2  CREATED="10-Jul-19 06:42"
