:08080000A831A42D0000FF3F08
:08080800830184312000770810
:10081000A0007808A1007908A2007A08A30030009F
:100820001A082000A40030001B082000A50030009A
:100830001C082000A60030001D082000A70007307B
:10084000850019308400801E2B2C073085000F3066
:100850008400801A502C073085001A308400001C58
:10086000372C07308500103084000018522C2008E7
:10087000F7002108F8002208F9002308FA002408EC
:1008800030009A002000250830009B002000260838
:1008900030009C002000270830009D000900200047
:1008A00080314D2D8031E32E4927D620CC244410B1
:1008B00043244127CE224C0500004927D620CC24D2
:1008C000441043244127CE224C050000C627D221E4
:1008D000451045274121CC22440500014927D62057
:1008E000CC244410D020D220CD22D42252050000A6
:1008F00043346137EE326C1030172E172022613AE4
:10090000611D2000C330EC346239613AE9376E1D55
:10091000200043346137EE326C1031172E1720223D
:10092000613A611D2000C330EC346239613AE93725
:100930006E1D20004927D620CC244410D020D22080
:10094000CD22D42252050000D32AC321C529530544
:100950000001CF2A54104F2320294127C7220A0023
:10096000D32AC321C52953050001CF2A54104F2390
:1009700020294127C7220A00D32AC321C5295305AC
:100980000001CF2A54104F2320294127C7220A00F3
:10099000D32AC321C52953050001CF2A54104F2360
:1009A00020294127C7220A00D32AC321C52953057C
:1009B0000001CF2A54104F2320294127C7220A00C3
:1009C0004927D620CC244410D020D220CD22D422B6
:1009D000520500004927D620CC244410D020D22034
:1009E000CD22D42252050000C22A46234529A02741
:1009F000D622522955270A00502353104937F43282
:100A00007236EF316B10D23276103218B11CB11839
:100A100032182D183116A0316F387939E933683A18
:100A20002025C82A0A00D32AC321C529530500015D
:100A3000D32AC321C529530500014927D620CC2438
:100A40004410C327CD26412744050000F701F801D3
:100A50002500250803102618F707F70CF80CA61830
:100A6000F707F70CF80C2619F707F70CF80CA6197E
:100A7000F707F70CF80C261AF707F70CF80CA61A6C
:100A8000F707F70CF80C261BF707F70CF80CA61B5A
:100A9000F707F70CF80C200008002E008F1EDE2E42
:100AA00064008F1E502D22001D082000A900220086
:100AB0001908F8002000A91C612D22001D121D1626
:100AC000200078082500A2002208403A20000319DF
:100AD000792D3E3A0319792D523A0319ED2D263A14
:100AE00003193A2E073A03197F2E2D3A03197F2E48
:100AF000822E25002208403C031D822D20003C113F
:100B0000842D250020003C153F082500A5001F303E
:100B1000A60020002625813078078400203085003B
:100B20000318850A0008233C031D982D0030992DD9
:100B300001302500A40020003F082500A5001F303B
:100B4000A60020002625813078078400203085000B
:100B50000318850A0008023C031DB02D0030B12D9A
:100B60000130250024040319EC2D20003F08250046
:100B7000A5001F30A60020002625813078078400BC
:100B8000203085000318850A013080002500A3016C
:100B90002308023C031CEA2D20003F082500A50085
:100BA0001F30A60020002625013078072500A4006C
:100BB0002308A5000A30A600200026257808250075
:100BC0002407813E8400203085000318850A8001B7
:100BD000A30AC82DF001F101CE2E3F082500A50083
:100BE0001F30A600200026258130780784002030A1
:100BF00085000318850A000B382E7008013C031C81
:100C0000222E3F082500A5001F30A6002000262523
:100C1000013078072500A4007008A5000A30A6005E
:100C2000200026257808250024077107813E8400CE
:100C3000203085000318850A80010130F007F1019A
:100C4000392E20003F082500A5001F30A6002000F7
:100C50002625813078078400203085000318850A16
:100C6000023080000130BF073F08033C031CBF0176
:100C70002500CE2E3F082500A5001F30A60020002D
:100C80002625813078078400203085000318850AE6
:100C9000000B7D2E3F082500A5001F30A600200078
:100CA0002625013078072500A4007008A5000A3029
:100CB000A600200026257808250024077107813E1C
:100CC0008400203085000318850A800120003F0839
:100CD0002500A5001F30A6002000262581307807BA
:100CE0008400203085000318850A233080000130FD
:100CF000BF073F08033C031CBF012500CE2E250083
:100D0000CE2E20003F082500A5001F30A6002000A1
:100D10002625813078078400203085000318850A55
:100D2000000BCD2E3F082500A5001F30A600200097
:100D30002625013078072500A4007008A5000A3098
:100D4000A600200026257808250024077107813E8B
:100D50008400203085000318850A2208800071086D
:100D6000093C031CB62E0130F107CE2E20003F08AF
:100D70002500A5001F30A600200026258130780719
:100D80008400203085000318850A0230800001307D
:100D9000BF073F08033C031CBF01250020003C1D8A
:100DA000DC2E2500220864002E000F1AD92E250003
:100DB000D32E22009A0020004D2D2E008F122000ED
:100DC00084312000372C24008C01F0308D00D83085
:100DD0008C0000302000BB1801302500A20000303C
:100DE00020003B1C0130250022040319FC2E2100A9
:100DF000CB01CA012B2F250000302000BB1B013086
:100E00002500A200003020003B1F013025002205F4
:100E100003192A2F01302100CA070030CB3D2000E2
:100E2000BA08031D292FB908031D292F38082100EE
:100E30004B0203181D2F2000292F031D272F2000F0
:100E4000370821004A020318272F2000292F2000ED
:100E50003B17250021002E001010200084312000B7
:100E6000372C502353104937F4327236EF316B1060
:100E7000D23276103218B11CB11832182D18311632
:100E8000A0316F387939E933683A2025C82A0A0039
:100E90002300B201300832020318642F32082E07F3
:100EA000840000302F3D850031083207B600360837
:100EB00030009A0070309B001E171E141C081E1371
:100EC00080002300B20A4A2F2000080023006F0888
:100ED0000739F7006F0CF800F80CF80C1F30F80514
:100EE00078082400210784000030223D8500F801A5
:100EF000F80AF70A7C2FF80DF70B7B2FA0080319CF
:100F0000842F78088004872FF8097808800520004E
:100F10000800213085003F30840000080319A12F0C
:100F20000A30F800BF30F7006400F70B942FF80B7D
:100F3000922F5E30F700F70B9B2F9E2F6400800BE3
:100F4000902F0800913093009814930018152300F7
:100F50002E08EF002400A001A2010A30A100200009
:100F6000662723002E08EF002400A001A20105300F
:100F7000A1002000662723002D088C000F0C031C05
:100F8000BE2F0330EF002000892723002E08EF003A
:100F900001302400A000A2010A30A1002000662731
:100FA00023002E08EF002400A001A2010530A100BB
:100FB00020006627080024004310C11B4314C4010D
:100FC000420844020318F32F4318E82F0310E92FB7
:100FD0000314C10CC00CBF0CBE0CBD0CBC0CBB0C74
:100FE000BA0CC40AE02F3A30F8000230F9002000B1
:100FF0000800FF3FFF3FFF3FFF3FFF3FFF3FFF3F37
:101000009130930098149300181523002E08EF00D8
:101010002400A001A2010A30A1008031200066272F
:10102000883123002E08EF002400A001A201053022
:10103000A100803120006627883123002D088C0014
:101040000F0C031C20280C088C010F0C031C2528F6
:101050000C08B0000C088C010F0C031C2C280C0889
:10106000AF002E08EF0001302400A000A2010A30DA
:10107000A100803120006627883123002E08EF0070
:101080002400A001A2010530A100803120006627C4
:10109000883123002F08F8003008F90020000800EC
:1010A0001E302300AD007130AE0080312000A22739
:1010B00088311E302300AD007230AE008031200038
:1010C000A2278831A0302300AD007130AE0020008F
:1010D00000207908D9007808D800A2302300AD009C
:1010E0007130AE00200000207908DB007808DA00BB
:1010F000A4302300AD007130AE002000002079083C
:10110000DD007808DC00A6302300AD007130AE00B1
:10111000200000207908DF007808DE00A8302300D6
:10112000AD007130AE00200000207908E1007808A1
:10113000E000AA302300AD007130AE002000002096
:101140007908E3007808E200AC302300AD0071308C
:10115000AE00200000207908E5007808E400AE30F9
:101160002300AD007130AE00200000207908E700B8
:101170007808E600A0302300AD007230AE002000F9
:1011800000207908E9007808E800A2302300AD00CB
:101190007230AE00200000207908EB007808EA00E9
:1011A000A4302300AD007230AE002000002079088A
:1011B000ED007808EC00A6302300AD007230AE00E0
:1011C000200000207908EF007808EE00A830230006
:1011D000AD007230AE002000002079082100A1008F
:1011E0007808A000AA302300AD007230AE002000C5
:1011F000002079082100A3007808A200AC30230069
:10120000AD007230AE002000002079082100A5005A
:101210007808A400AE302300AD007230AE0020008C
:10122000002079082100A7007808A6002000080007
:1012300020302300C200BE01BF01C001C101390836
:10124000FA003808F9003708F8003608F7000310EC
:10125000771C38293A08BE073B0803183B0FBF0725
:101260003C0803183C0FC0073D0803183D0FC10799
:10127000C10CC00CBF0CBE0CFA0CF90CF80CF70C2E
:10128000C20B27292000080057082300B9002000BE
:1012900056082300B800200055082300B70020009E
:1012A00054082300B6004130BD00C630BC004E30AB
:1012B000BB006D30BA00200018217A082300B70067
:1012C0007908B6007808B5007708B40039303407DB
:1012D0002000D40030302300353D2000D500003000
:1012E0002300363D2000D60000302300373D20008B
:1012F000D7005608F7005708F800F901FA017808F6
:101300002300B6007708B5003608B8003508B700E6
:101310007F30BA00FF30B900F801F901F701FA0196
:101320003A08031D962939080319B0291030BB006B
:101330000310B70DB80DF70DFA0D3A087A02031D28
:10134000A32939087702031CAC293908F702031CCA
:10135000FA033A08FA020314F80DF90DBB0B9829A9
:101360007708F8007A08F90020000800FF303E00F6
:10137000CF0020302300AE000A30AD001130AF00A6
:10138000FF3030009A0070309B001E171E141C089E
:101390001E13AB3C03190D2A2300B0012F083002A5
:1013A0000318F62930082D07840000302E3D8500F3
:1013B0000008B1000B08F7008B13300830009A00CA
:1013C00070309B002300310830009C001E171E1552
:1013D00055309F00AA309F009E149E18ED291E11C3
:1013E0001E1377088B042300B00ACE290B08F700E0
:1013F0008B13FF3030009A0070309B00AB309C00A4
:101400001E171E1555309F00AA309F009E149E186F
:10141000072A1E111E1377088B0420302300AF000B
:101420000A30AE001130B000B101803120004827F1
:10143000883130000C086400200050200230240065
:10144000910037308E008F0190012E001A14300069
:101450000C0864002300AD012D08033C031C832A03
:101460002000A8018B1BA8178B1323002D08250033
:10147000A5001F30A6008031200026258831A81B3A
:101480008B17813078078400203085000318850A87
:1014900080012300AE012E08023C031C812A20009B
:1014A000A8018B1BA8178B1323002D082500A5006E
:1014B0001F30A6008031200026258831A81B8B17FD
:1014C000013078072300B0002000A8018B1BA8176B
:1014D0008B1323002E082500A5000A30A6008031BA
:1014E000200026258831A81B8B1778082300300799
:1014F000813E8400203085000318850A8001AE0AF1
:101500004B2AAD0A2C2A2000BF01F001F101F201A3
:101510002E00991620004421D301D2017908D10070
:101520007808D00030000C086400A83120004E2E4E
:101530000B088B1330001E131E1400000000891BC3
:101540008B171C087F390319EE2A2300B7003000DF
:101550001A082300B80030001B082300B900370820
:1015600064002E000F1AB62A2300B02A22009A0027
:101570002300380830009A002300390830009B000F
:101580000B088B131E131E1400000000891B8B1701
:101590001C0D1D0D7F390319EE2A2300B700300002
:1015A0001A082300B80030001B082300B9003708D0
:1015B00064002E000F1ADE2A2300D82A22009A0087
:1015C0002300380830009A002300390830009B00BF
:1015D0009A0A03199B0A2000982A3000200008006C
:1015E0009130930098149300181523006A08EF00B7
:1015F0002400A001A2010A30A1008031200066274A
:10160000883123006A08EF002400A001A201053000
:10161000A10080312000662788312300690868070F
:10162000EF006F088C000F0C031C132B4030680276
:10163000F73E03185F2B093E2000CE2B64001D30BF
:101640002300EF001F302400A0000230A002031C82
:10165000362B213085004030840000080319362BDA
:10166000342B322B332B6400800B312B2300EF0BF8
:10167000222B5F2B03302300EF00803120008927CD
:10168000883123005F2B04302300EF0080312000DD
:101690008927883123005F2B06302300EF0080313B
:1016A00020008927883123005F2B0A302300EF00B8
:1016B000803120008927883123005F2B23006A08AE
:1016C000EF0001302400A000A2010A30A100803107
:1016D00020006627883123006A08EF002400A0015B
:1016E000A2010530A1008031200066278831230047
:1016F0006A08EF002400A001A2010A30A100803195
:1017000020006627883123006A08EF002400A0012A
:10171000A2010530A1008031200066278831230016
:101720000C088C010F0C031C922BEE010C088C0191
:101730000F0C031C982B0C08ED000C088C010F0CEF
:10174000031C9F2B0C08EC000C088C010F0C031CD5
:10175000A62B0C08EB006A08EF0001302400A00063
:10176000A2010A30A10080312000662788312300C1
:101770006A08EF002400A001A2010530A100803119
:1017800020006627883123006B08F7006C08F800FA
:101790006D08F9006E08FA00200008000A148A1487
:1017A0000A1182071E2B5E2B3A2B5E2B432B5E2BDE
:1017B0004C2B5E2B552B24002208A3002108A200ED
:1017C0002008A100A001200823006C02F7002400DB
:1017D000210823006D3BF8002400220823006E3B03
:1017E000F9002400230823006F3BFA002400A7001F
:1017F0007908A6007808A5007708A4002408F70057
:101800002508F8002608F9002708FA009031200082
:101810007B2C24005508D9005408D8005308D70061
:101820005208D600DD01DC01DB01DA015E10DE10BA
:101830005E11DF015F081F3C031C652CDE1056188B
:10184000DE14DE18392C5E1C392C4E085A07F700BE
:101850004F085B3DF80050085C3DF90051085D3DC4
:10186000FA00DD007908DC007808DB007708DA0090
:10187000502C5E18502CDE1C502C4E085A02F700DB
:101880004F085B3BF80050085C3BF90051085D3B9A
:10189000FA00DD007908DC007808DB007708DA0060
:1018A0005E10DE185E145E11DD1B5E155E195A2C8B
:1018B00003105B2C0314DD0CDC0CDB0CDA0CD90CF4
:1018C000D80CD70CD60CDF0A1A2C5630F800023090
:1018D000F9002000080024006508DD076608DE3DE9
:1018E0006708DF3D6808E03D6908E13D6A08E23DC0
:1018F0006B08E33D6C08E43D20005D30F8000230E9
:10190000F900080023006F082400D10023006E08AE
:101910002400D00023006D082400CF0023006C08B1
:101920002400CE002308D5002208D4002108D300CB
:101930002008D200200009247908FA0078088400E1
:101940007A0885000830F80021308700443086008E
:1019500012001E00F80BA82C24002408BA00250849
:10196000BB002608BC002708BD002808BE002908C7
:10197000BF002A08C0002B08C1001730C200803108
:101980002000DB2788317908FA00780884007A087B
:1019900085000830F80021308700443086001200AE
:1019A0001E00F80BCF2C2400AF01AE010730AD00B4
:1019B000D030AC00B301B201B101B0012408DD00A8
:1019C0002508DE002608DF002708E0002808E100DF
:1019D0002908E2002A08E3002B08E4002C08E500AF
:1019E0002D08E6002E08E7002F08E8003008E9007F
:1019F0003108EA003208EB003308EC0020006B24C9
:101A00007908FA00780884007A0885000830F80020
:101A1000213087004430860012001E00F80B0C2D88
:101A200024002408F7002508F8002608F9002708F4
:101A3000FA0090312000B52C2400C801C701C6016E
:101A4000C5014008C4003F08C3003E08C2003D086D
:101A5000C1004130F8000230F900200008002400E5
:101A6000C2014108420203183F2DB935BA0DBB0D22
:101A7000BC0DBD0DBE0DBF0DC00DC20A312D3930DC
:101A8000F8000230F9002000080023006E0EF70075
:101A9000F030F7057708043E383E8400203085009A
:101AA0000318850A01310008FA003F3100082400BC
:101AB000B4007A08B500B601B7013708C00036088F
:101AC000BF003508BE003408BD0020001C25790881
:101AD000FA00780884007A0885000830F800213080
:101AE00087004430860012001E00F80B732D24007E
:101AF0002408B9002508BA002608BB002708BC0046
:101B00002808BD002908BE002A08BF002B08C00015
:101B10001130C10020002F257908FA0078088400D0
:101B20007A0885000830F8002130870044308600AC
:101B300012001E00F80B982D23006E0EF700F030F7
:101B4000F7057708083E383E8400203085000318EA
:101B5000850A01310008FA003F3100082400B40072
:101B60007A08B500B601B7013708D1003608D000B1
:101B70003508CF003408CE002308D5002208D40051
:101B80002108D3002008D200200009247908FA0097
:101B9000780884007A0885000830F8002130870032
:101BA0004C30860012001E00F80BD22D24002C08A9
:101BB000BA002D08BB002E08BC002F08BD0030085D
:101BC000BE003108BF003208C0003308C100063033
:101BD000C20080312000DB2788317908FA007808BC
:101BE00084007A0885000830F800213087004C30E6
:101BF000860012001E00F80BF92D24002C08DD00D1
:101C00002D08DE002E08DF002F08E0003008E1007C
:101C10003108E2003208E3003308E4002408E5005C
:101C20002508E6002608E7002708E8002808E9005C
:101C30002908EA002A08EB002B08EC0020006B249E
:101C40007908FA00780884007A0885000830F800DE
:101C5000213087004C30860012001E00F80B2C2E1D
:101C60002C30F8000230F9009031F92C23006E0E70
:101C7000F700F030F7057708023E383E8400203048
:101C800085000318850A01310008FA003F31000879
:101C90002400B4007A08B500B601B7013708C000C7
:101CA0003608BF003508BE003408BD0020001C25E2
:101CB0007908FA00780884007A0885000830F8006E
:101CC000213087004430860012001E00F80B642E7D
:101CD00024002408B9002508BA002608BB002708FC
:101CE000BC002808BD002908BE002A08BF002B0838
:101CF000C0001030C10020002F257908FA007808B4
:101D000084007A0885000830F800213087004430CC
:101D1000860012001E00F80B892E23006E0EF700BD
:101D2000F030F7057708063E383E84002030850005
:101D30000318850A01310008FA003F310008240029
:101D4000B4007A08B500B601B7013708D1003608EB
:101D5000D0003508CF003408CE002308D500220873
:101D6000D4002108D3002008D200200009247908DB
:101D7000FA00780884007A0885000830F8002130DD
:101D800087004C30860012001E00F80BC32E240082
:101D90002C08BA002D08BB002E08BC002F08BD007F
:101DA0003008BE003108BF003208C0003308C1004F
:101DB0000730C20080312000DB2788317908FA0023
:101DC000780884007A0885000830F8002130870000
:101DD0004C30860012001E00F80BEA2E24002C085E
:101DE000DD002D08DE002E08DF002F08E00030089F
:101DF000E1003108E2003208E3003308E40024087F
:101E0000E5002508E6002608E7002708E80028087E
:101E1000E9002908EA002A08EB002B08EC00200062
:101E20006B247908FA00780884007A088500083065
:101E3000F800213087004C30860012001E00F80B9D
:101E40001D2F2C30F8000230F90090311F2D240096
:101E50003F08D1003E08D0003D08CF003C08CE002E
:101E60003F08D5003E08D4003D08D3003C08D2000E
:101E7000200009247908FA00780884007A0885008F
:101E80000830F800213087006030860012001E0004
:101E9000F80B462F4030F8000230F900080024000B
:101EA000CE014E08073C031C722F66304E07F80027
:101EB0002130FA000318FA0A7808D8007A08D90005
:101EC00066304E078400213085000318850A00081B
:101ED000FF3CDA0059088500580884005A08800041
:101EE000CE0A512FD201D101D0010130CF00D6014D
:101EF000D501D401D3014608DD004708DE004808BB
:101F0000DF004908E0004A08E1004B08E2004C0805
:101F1000E3004D08E4004F08E5005008E6005108D2
:101F2000E7005208E8005308E9005408EA005508A1
:101F3000EB005608EC0020006B247908FA007808C2
:101F400084007A0885000830F80021308700663068
:101F5000860012001E00F80BA92F4630F800023050
:101F6000F900080023004C08F700031030001E138E
:101F70001E14000000001C08800001319A0A031999
:101F80009B0AF70BB82F2000080023004108F80136
:101F900040020318CE2F4008F700DA2FF70108306F
:101FA000C200C00DF70D410877020318F700F80DC5
:101FB000C20BD12F20000800FF3FFF3FFF3FFF3F34
:102000002400A31B1328A308031D3929A208031DBC
:1020100039292108073C031C3929031D13282008EE
:10202000CF3C031C3929D030A0020730A13B00303F
:10203000A23BA33B2308BF002208BE002108BD002D
:102040002008BC0088312000272790317908FA0049
:10205000780884007A0885000830F800213087006D
:102060004430860012001E00F80B32282400270896
:10207000D1002608D0002508CF002408CE00D501C5
:10208000D401D3013D30D2008831200009249031A1
:102090007908FA00780884007A0885000830F8008A
:1020A000213087004430860012001E00F80B5428AF
:1020B00024002408BA002508BB002608BC00270815
:1020C000BD002808BE002908BF002A08C0002B0850
:1020D000C1000430C20080312000DB279031790834
:1020E000FA00780884007A0885000830F80021306A
:1020F00087004430860012001E00F80B7B28240065
:10210000A31F38292308FF3C031C3829031D9828E6
:102110002208FF3C031C3829031D98282108FA3C9B
:10212000031C3829031D98282008233C031C382948
:10213000DC30A0070530A13D0030A23DA33D2308BF
:10214000BF002208BE002108BD002008BC00883165
:102150002000272790317908FA00780884007A084F
:1021600085000830F800213087004C3086001200CE
:102170001E00F80BB72824002F08D1002E08D0002D
:102180002D08CF002C08CE00D501D401D3010F308B
:10219000D20088312000092490317908FA007808AB
:1021A00084007A0885000830F800213087004C3020
:1021B000860012001E00F80BD92824002C08DD0030
:1021C0002D08DE002E08DF002F08E0003008E100B7
:1021D0003108E2003208E3003308E4002408E50097
:1021E0002508E6002608E7002708E8002808E90097
:1021F0002908EA002A08EB002B08EC0088312000AF
:102200006B2490317908FA00780884007A088500F8
:102210000830F800213087004430860012001E008C
:10222000F80B0E2924002408C6002508C70026083C
:10223000C8002708C9002808CA002908CB002A08B6
:10224000CC002B08CD00883120004F279031790831
:10225000FA00780884007A0885000830F8002130F8
:1022600087004430860012001E00F80B332924003A
:102270004129A701A601A501A401AB01AA01A90159
:10228000A8012430F8000230F90090312000422DDE
:102290002400A31B5B29A308031D6C2AA208031DAD
:1022A0006C2A2108073C031C6C2A031D5B292008AB
:1022B000CF3C031C6C2AD0302002B4000730213BF5
:1022C000B5000030223BB6000030233BB700BF0012
:1022D0003608BE003508BD003408BC008831200037
:1022E000272790317908FA00780884007A08850059
:1022F0000830F800213087004430860012001E00AC
:10230000F80B7E2924002408B9002508BA00260805
:10231000BB002708BC002808BD002908BE002A0809
:10232000BF002B08C0000130C100883120002F25DC
:1023300090317908FA00780884007A08850008301E
:10234000F800213087004430860012001E00F80B90
:10235000A5292400A31F6B2A2308FF3C031C6B2A1A
:10236000031DC2292208FF3C031C6B2A031DC2293E
:102370002108FA3C031C6B2A031DC2292008233CB8
:10238000031C6B2ADC302007B4000530213DB5006A
:102390000030223DB6000030233DB700BF003608B4
:1023A000BE003508BD003408BC0088312000272756
:1023B00090317908FA00780884007A08850008309E
:1023C000F800213087004C30860012001E00F80B08
:1023D000E52924002408B9002508BA002608BB0016
:1023E0002708BC002808BD002908BE002A08BF0035
:1023F0002B08C0000330C100883120002F25903108
:102400007908FA00780884007A0885000830F80016
:10241000213087004C30860012001E00F80B0C2A79
:1024200024002408DD002508DE002608DF00270838
:10243000E0002808E1002908E2002A08E3002B0850
:10244000E4002C08E5002D08E6002E08E7002F0820
:10245000E8003008E9003108EA003208EB003308F0
:10246000EC00883120006B2490317908FA0078085C
:1024700084007A0885000830F80021308700443055
:10248000860012001E00F80B412A24002408C60012
:102490002508C7002608C8002708C9002808CA0060
:1024A0002908CB002A08CC002B08CD008831200059
:1024B0004F2790317908FA00780884007A0885005F
:1024C0000830F800213087004430860012001E00DA
:1024D000F80B662A2400742AA701A601A501A4010D
:1024E000AB01AA01A901A8012430F8000230F900CB
:1024F00090312000C62D24002B08AF002A08AE0022
:102500002908AD002808AC00B301B201B101B00147
:10251000B701B601B501B4012008C6002108C70003
:102520002208C8002308C9002408CA002508CB00D7
:102530002608CC002708CD00883120004F27903195
:102540007908FA00780884007A0885000830F800D5
:10255000213087005830860012001E00F80BAC2A8C
:1025600023006E10EE106E11EF016F081F3C031C6C
:10257000562BEE1024002C1CC02A2300EE1424003D
:102580002300EE18FC2A6E1CFC2A24003008DD0013
:102590003108DE003208DF003308E0003408E100D3
:1025A0003508E2003608E3003708E4002008E500BB
:1025B0002108E6002208E7002308E8002408E900D3
:1025C0002508EA002608EB002708EC0088312000E7
:1025D0006B2490317908FA00780884007A08850025
:1025E0000830F800213087005030860012001E00AD
:1025F000F80BF62A352B23006E18362BEE1C362BE3
:1026000024003008DD003108DE003208DF00330826
:10261000E0003408E1003508E2003608E30037083E
:10262000E4003808E5003908E6003A08E7003B080E
:10263000E8003C08E9003D08EA003E08EB003F08DE
:10264000EC00883120006B2490317908FA0078087A
:1026500084007A0885000830F80021308700503067
:10266000860012001E00F80B312B23006E10EE18AE
:102670006E146E112400B71F402B23006E1524002A
:1026800023006E19452B0310462B03142400B70CAE
:10269000B60CB50CB40CB30CB20CB10CB00CAF0C46
:1026A000AE0CAD0CAC0C2300EF0AB52A2C30F800B0
:1026B0000230F900903120006A2E2400A31B702BF9
:1026C000A308031DEB2BA208031DEB2B2108073CDD
:1026D000031CEB2B031D702B2008CF3C031CEB2BA2
:1026E00023006D082400BF0023006C082400BE00F6
:1026F00023006B082400BD0023006A082400BC00EE
:1027000088312000272790317908FA007808840062
:102710007A0885000830F8002130870044308600B0
:1027200012001E00F80B902B24002408BA00250884
:10273000BB002608BC002708BD002808BE002908E9
:10274000BF002A08C0002B08C1001F30C200803122
:102750002000DB2790317908FA00780884007A0895
:1027600085000830F80021308700443086001200D0
:102770001E00F80BB72B24002408C6002508C7004C
:102780002608C8002708C9002808CA002908CB0065
:102790002A08CC002B08CD00883120004F2790312B
:1027A0007908FA00780884007A0885000830F80073
:1027B000213087004430860012001E00F80BDC2B0D
:1027C00024002408F7002508F8002608F900270847
:1027D000FA00EF2BEF2BF701F801F901FA01903124
:1027E0002000A22F23003508E8001030E90032084D
:1027F000EA0088312000F02290317A082300B900E5
:102800007908B8007808B7007708B6003508E800FE
:10281000E9013208EA0088312000F02290317A087C
:102820002300BD007908BC007808BB007708BA0017
:102830003208713C031D1E2CB201202C0130B20065
:10284000320DF700F70DF70DF830F7057708583E11
:102850008400203085000318850A3A0880003B0870
:10286000813F3C08823F3D08833F320DF700F70D62
:10287000F70DF830F7057708043E583E8400203005
:1028800085000318850A360880003708813F38081C
:10289000823F3908833F320EF700F030F7057708A2
:1028A0000A3E383E8400203085000318850A013135
:1028B0000008FA003F310008E8007A08E900EA0160
:1028C000EB013908EF003808EE003708ED00360854
:1028D000EC006B082400A30023006A082400A20077
:1028E000230069082400A100230068082400A00038
:1028F00088312000DB2B90317A082300C100790851
:10290000C0007808BF007708BE00320EF700F03034
:10291000F70577080C3E383E840020308500031808
:10292000850A01310008FA003F310008E8007A0802
:10293000E900EA01EB014108EF004008EE003F0822
:10294000ED003E08EC006B082400A30023006A0899
:102950002400A200230069082400A10023006808C5
:102960002400A00088312000822C90317A082300B6
:10297000C5007908C4007808C3007708C200C901FF
:10298000C801C701C601BA08031DD42CBB08031D2A
:10299000D42CBC08031DD42CBD08031DD42CC901A4
:1029A000C801C701C601772F3A0FE52C3B0FE52C74
:1029B0003C0FE52CBD08031DE52CC9010F30C800F4
:1029C0004230C7003F30C600772F3208EE00410882
:1029D0002400A300230040082400A20023003F0895
:1029E0002400A10023003E082400A000883120001C
:1029F000452D90317908FA00780884007A0885001E
:102A00000830F800213087001A30860012001E00BE
:102A1000F80B062D23003208EE0041082400A30025
:102A2000230040082400A20023003F082400A10046
:102A300023003E082400A00088312000362E90316B
:102A40007908FA00780884007A0885000830F800D0
:102A5000213087002230860012001E00F80B2C2D3A
:102A6000230045082400A300230044082400A200FA
:102A7000230043082400A100230042082400A000F2
:102A8000200000287908FA00780884007A08850078
:102A900000082300E80001310008E90001310008C6
:102AA000EA0001310008EB0001310008EC000131BF
:102AB0000008ED0001310008EE0001310008EF00D0
:102AC00039314A082400DD0023004B082400DE00D1
:102AD00023004C082400DF0023004D082400E00000
:102AE00023004E082400E10023004F082400E200E8
:102AF000230050082400E300230051082400E400D0
:102B0000230068082400E500230069082400E6008B
:102B100023006A082400E70023006B082400E80073
:102B200023006C082400E90023006D082400EA005B
:102B300023006E082400EB0023006F082400EC0043
:102B4000883120006B2490317908FA0078088400DD
:102B50007A0885000830F800213087001A30860096
:102B600012001E00F80BB02D230045082400A3001E
:102B7000230044082400A200230043082400A100ED
:102B8000230042082400A000200048297908FA0008
:102B9000780884007A08850000082300E8000131E5
:102BA0000008E90001310008EA0001310008EB00EB
:102BB00001310008EC0001310008ED00013100088E
:102BC000EE0001310008EF00393152082400DD0029
:102BD000230053082400DE00230054082400DF00F3
:102BE000230055082400E000230056082400E100DB
:102BF000230057082400E200230058082400E300C3
:102C0000230059082400E400230068082400E5009C
:102C1000230069082400E60023006A082400E70076
:102C200023006B082400E80023006C082400E9005E
:102C300023006D082400EA0023006E082400EB0046
:102C400023006F082400EC00883120006B249031B1
:102C50007908FA00780884007A0885000830F800BE
:102C6000213087002230860012001E00F80B342E1F
:102C7000230052082400A000230053082400A100D0
:102C8000230054082400A200230055082400A300B8
:102C9000230056082400A400230057082400A500A0
:102CA000230058082400A600230059082400A70088
:102CB00023003D082400AB0023003C082400AA00A8
:102CC00023003B082400A90023003A082400A800A0
:102CD00020007B2A7908FA00780884007A088500A9
:102CE0000830F800213087002A30860012001E00CC
:102CF000F80B762E23005A082400BA0023005B0844
:102D00002400BB0023005C082400BC0023005D08F5
:102D10002400BD0023005E082400BE0023005F08DD
:102D20002400BF00230060082400C00023006108C5
:102D30002400C1001530C20080312000DB27903113
:102D40007908FA00780884007A0885000830F800CD
:102D5000213087002A30860012001E00F80BAC2EAE
:102D600023004A082400C60023004B082400C700A3
:102D700023004C082400C80023004D082400C9008B
:102D800023004E082400CA0023004F082400CB0073
:102D9000230050082400CC00230051082400CD005B
:102DA000883120004F2790317908FA007808840094
:102DB0007A0885000830F800213087001A30860034
:102DC00012001E00F80BE02E23005A082400DD003C
:102DD00023005B082400DE0023005C082400DF00E1
:102DE00023005D082400E00023005E082400E100C9
:102DF00023005F082400E200230060082400E300B1
:102E0000230061082400E40023004A082400E500B0
:102E100023004B082400E60023004C082400E700B0
:102E200023004D082400E80023004E082400E90098
:102E300023004F082400EA00230050082400EB0080
:102E4000230051082400EC00883120006B249031CD
:102E50007908FA00780884007A0885000830F800BC
:102E6000213087002A30860012001E00F80B342F14
:102E700023005A082400BA0023005B082400BB008A
:102E800023005C082400BC0023005D082400BD0072
:102E900023005E082400BE0023005F082400BF005A
:102EA000230060082400C000230061082400C10042
:102EB0000F30C20080312000DB2790317908FA0002
:102EC000780884007A0885000830F80021308700EF
:102ED0002A30860012001E00F80B6A2F23005D08BE
:102EE000C9005C08C8005B08C7005A08C600FA01A0
:102EF0003208F900F90DFA0DF90DFA0DFC30F9055B
:102F000079083307F8003408FA3D7808E8007A08B1
:102F1000E9004108ED004008EC003F08EB003E08E6
:102F2000EA0045082400A300230044082400A2006E
:102F3000230043082400A100230042082400A0002D
:102F400020005D2B770823004202F7007808031C5D
:102F5000780FAC2F4308AD2F4302F8007908031C0B
:102F6000790FB42F4408B52F4402F9007A08031CE6
:102F70007A0FBC2F4508BD2F4502FA00690885006D
:102F800068088400770880007808813F7908823FCC
:102F90007A08833F4608F7004708F8004808F90018
:102FA0004908FA0020000800FF3FFF3FFF3FFF3FB6
:102FB000FF3FFF3FFF3FFF3FFF3FFF3FFF3FFF3F21
:10300000FD3091003B108C1A3B14FD309100BB1138
:103010008C1BBB15FD309100BB100C1ABB14FD308E
:1030200091003B110C193B159216BB138D1ABB175F
:1030300071302300B2002030B4002830B300483093
:10304000B50090312000F22398317A08C300790846
:10305000C2007808C1007708C00072302300B200B7
:103060002030B4002830B3004830B5009031200043
:10307000F22398317A08C7007908C6007808C5009D
:103080007708C4003B185628BB163B13BC11F4014B
:10309000BC1C55283C10BC10883144219831D30108
:1030A000D2017908D1007808D0005728BC1400302C
:1030B000BB1801302300B300003020003C18013061
:1030C0002300330403196B2820003B16FD309100C8
:1030D0009614872923002000C31B8428310843024B
:1030E000031C8428031D862830084202031C842800
:1030F000031D86282F084102031C8428031D8628EF
:1031000040082E02031C8628003087280130230047
:10311000B2002000C71BA22831084702031CA228C6
:10312000031DA42830084602031CA228031DA4285E
:103130002F084502031CA228031DA42844082E02C0
:10314000031CA4280030A52801302300B20520006C
:10315000C31BBF28C308031DBD284208033C031C32
:10316000BD28031DBF2841080D3C031CBD28031DBD
:10317000BF2840083F3C0318BF280030C02801305A
:103180002300B2052000C71BDA28C708031DD82872
:103190004608033C031CD828031DDA2845080D3CCB
:1031A000031CD828031DDA2844083F3C0318DA28FA
:1031B0000030DB2801302300B2052000C31BEF28BC
:1031C000C308031DED28C208031DED28C108031D17
:1031D000ED284008003C0318EF280030F0280130AB
:1031E0002300B3002000C71B0429C708031D0229C0
:1031F000C608031D0229C508031D02294408003C16
:103200000318042900300529013023003305320456
:10321000031982292000C71F1029C31F282912293A
:10322000C31B3E2947084302031C3E29031D2829CE
:1032300046084202031C3E29031D28294508410275
:10324000031C3E29031D28294008440203183E2977
:1032500044084002F7004508413BF8004608423B5D
:10326000F9004708433BFA002300B0007908AF009B
:103270007808AE007708AD005229200040084402CB
:10328000F7004108453BF8004208463BF900430877
:10329000473BFA002300B0007908AF007808AE0081
:1032A0007708AD00300820002D02031C7C29031D87
:1032B000712923002F0820002C02031C7C29031DE8
:1032C000712923002E0820002B02031C7C29031DDA
:1032D00071292A0823002D02031C702920007C2953
:1032E00020003B163B1B7829FD30910096147B296A
:1032F000FD309100961080293B12FD309100961010
:103300008729230020003B12FD30910096103C18C5
:10331000E72900303B1D01302300B30000302000BE
:10332000BB1901302300330503199A292000BC156D
:10333000E72923002000C31BB52943083502031CDD
:10334000B329031DB52942083402031CB329031D08
:10335000B52941083302031CB329031DB5294008D0
:1033600032020318B5290030B62901302300B2001B
:103370002000C71BD32947083502031CD129031D90
:10338000D32946083402031CD129031DD32945083B
:103390003302031CD129031DD32944083202031828
:1033A000D3290030D4290130230032050319E5293F
:1033B00074080A3C0318E0292000BC15E329230007
:1033C0000130F4072000E7292300F4012000BC1D90
:1033D000392AC31B012A35084302031C012A031D95
:1033E000032A34084202031C012A031D032A33085E
:1033F0004102031C012A031D032A40083202031C58
:10340000032A0030042A01302300B2002000C71B29
:103410001F2A35084702031C1F2A031D212A3408CE
:103420004602031C1F2A031D212A33084502031CE0
:103430001F2A031D212A44083202031C212A0030BE
:10344000222A01302300320403192F2A7308200096
:103450003602031C2D2A0130F307312A2300F30121
:103460002000730836020318392ABB12FD30910080
:103470009610A831652E2300BD01BE013A08F80060
:103480003B08FA00780830009A007A089B00213047
:1034900085001930840001302300CC0088312000E1
:1034A000B22798312300C9080319D32ABE013C086A
:1034B0003E020318812A0F303E07C9002130CA009E
:1034C0000318CA0A3E083A07F80000303B3DFA00EC
:1034D000780830009A007A089B00213085001B3064
:1034E000840001302300CC0088312000B2279831BD
:1034F00023004A088500490884004B088000BE0A62
:10350000572A2130CA000F30C9003908CC003808CA
:10351000CB004A08FA00490884007A0885000008B0
:10352000CD004C08FA004B0884007A08850000089A
:103530004D02031DB12A4A08FA00490884007A089E
:1035400085008008031DA72A0030F800C72A4A0812
:10355000FA004908C90A0319CA0ACB0A0319CC0A96
:10356000892A4A08FA00490884004A0885000008A8
:10357000CD004C08FA004B0884004C088500000878
:103580004D020318C52AFF30C62A0130F800F8089A
:10359000031DCD2A3D08F800D52ABD0A3C08BA070C
:1035A0000030BB3D3E2AFF30F800200008008318A1
:1035B000DD2A213085001030840023003B083F06BF
:1035C0008039C500BB1FEF2AB809B909BA09BB0980
:1035D000B80A0319B90A0319BA0A0319BB0ABF1FAB
:1035E000FC2ABC09BD09BE09BF09BC0A0319BD0AF2
:1035F0000319BE0A0319BF0AF701F801F901FA011C
:10360000C001C101C201C3013F083E043D043C04A6
:1036100003193A2B2030C4000310B80DB90DBA0DB0
:10362000BB0DC00DC10DC20DC30D3F084302031DEC
:10363000232B3E084202031D232B3D084102031D9C
:10364000232B3C084002031C342B3C08C0023D08DD
:10365000031C3D0FC1023E08031C3E0FC2023F087F
:10366000031C3F0FC3020314F70DF80DF90DFA0DFB
:10367000C40B0C2BC51F472BF709F809F909FA09E8
:10368000F70A0319F80A0319F90A0319FA0A400894
:1036900080004108813F4208823F4308833F200069
:1036A00008008318572B2130850022308400F70151
:1036B000F801F901FA012300D201D301D401D501A7
:1036C0004F084E044D044C040319962B2030D600AD
:1036D0000310C80DC90DCA0DCB0DD20DD30DD40DDD
:1036E000D50D4F085502031D7F2B4E085402031DB4
:1036F0007F2B4D085302031D7F2B4C085202031CE5
:10370000902B4C08D2024D08031C4D0FD3024E08DB
:10371000031C4E0FD4024F08031C4F0FD502031495
:10372000F70DF80DF90DFA0DD60B682B5208800035
:103730005308813F5408823F5508833F200008000A
:1037400004082300C000BB1FB22BC003C016B80979
:10375000B909BA09BB09B80A0319B90A0319BA0A9F
:103760000319BB0A3B30C7009A30C600CA30C500F7
:10377000C4010A30C2003C08031DC0038314213079
:103780008500083084003B08CB003A08CA0039089D
:10379000C9003808C8004708CF004608CE004508D1
:1037A000CD004408CC00200051237808F708031D01
:1037B000F02B23003C0A4202031DE02B2000F02BDB
:1037C00040080319F32B0F3942020319E92B0318A0
:1037D0003F2CC01B3F2C401BF32B2030342C2000EF
:1037E00020302300C005C01E082CC0123C08031D59
:1037F000C0037708C0002D3064002E000F1A022C81
:103800002300FC2B22009A0023004008F700C0018F
:103810003C084202031D1D2C7708C0002E306400B6
:103820002E000F1A152C23000F2C22009A002300C3
:103830004008F7002030C00500303030C01E342C66
:10384000C0123C08031DC0037708C0002D3064007F
:103850002E000F1A2D2C2300272C22009A00230063
:103860004008F700C0013030F707770864002E00E9
:103870000F1A3C2C2300362C22009A0023008310C0
:103880004708CB004608CA004508C9004408C800DC
:10389000CF01CE01CD010A30CC00200051237A089F
:1038A0002300C7007908C6007808C5007708C4005F
:1038B000C20BBE2B20000800A8018B1BA8178B137E
:1038C00072082500A5001F30A600803120002625A3
:1038D0009831A81B8B17013078070A3E813EF8000B
:1038E0002030FA000318FA0A78082300B0007A089A
:1038F000B100B9003008B8003F30BB007C30BA00DE
:103900000830BC0020003B2278082300AE002000D5
:10391000A8018B1BA8178B1372082500A5001F3068
:10392000A6008031200026259831A81B8B17013076
:103930007807143E813EF8002030FA000318FA0A96
:1039400078082300B0007A08B100B9003008B80048
:103950003F30BB006A30BA000830BC0020003B2278
:1039600078082300AF002E08013C031C5E2D2F0BAE
:103970002D2D2E0DF700F70DFC30F7057708203EB2
:103980008400203085000318850A0008B00001314A
:103990000008B10001310008B20001310008B30095
:1039A0003D310508B5000408B4003308B9003208F9
:1039B000B8003108B7003008B600BD01BC01BB013A
:1039C0004B30BA0088312000182198312300350887
:1039D0008500340884007A08B3007908B2007808BA
:1039E000B1007708B0000508B7000408B6008310DE
:1039F0003308BB003208BA003108B9003008B800FB
:103A0000BF01BE01BD016430BC002000D7222300ED
:103A100037088500360884007A08B3007908B200B8
:103A20007808B1007708B000043084003308BB0088
:103A30003208BA003108B9003008B8000230BC00C2
:103A40002000A0230A3064002E000F1A292D200028
:103A5000232D22009A005C2D23002E0DF700F70D78
:103A6000FC30F7057708203E8400203085000318DD
:103A7000850A0008B00001310008B10001310008DA
:103A8000B20001310008B3003D3104308400330836
:103A9000BB003208BA003108B9003008B800023063
:103AA000BC002000A0230A3064002E000F1A5A2DFB
:103AB0002000542D22009A00672E23002E08023C7D
:103AC000031D5D2E2F0B142E200043082300B90088
:103AD000200042082300B800200041082300B7005E
:103AE000200040082300B600BD01BC01BB014B30E3
:103AF000BA0088312000182198317A082300B300D9
:103B00007908B2007808B1007708B0008310330854
:103B1000BB003208BA003108B9003008B800BF0154
:103B2000BE01BD016430BC002000D7227A0823000A
:103B3000B3007908B2007808B1007708B00020001F
:103B400047082300B900200046082300B8002000E1
:103B500045082300B700200044082300B600BD013B
:103B6000BC01BB014B30BA008831200018219831CC
:103B70007A082300B7007908B6007808B5007708FE
:103B8000B40083103708BB003608BA003508B90006
:103B90003408B800BF01BE01BD016430BC00200084
:103BA000D7227A082300B7007908B6007808B50054
:103BB0007708B400043084003308BB003208BA0030
:103BC0003108B9003008B8000230BC002000A02342
:103BD0002C3064002E000F1AEF2D2000E92D22005A
:103BE0009A00203064002E000F1AF82D2200F22DCA
:103BF00022009A000430840023003708BB003608F6
:103C0000BA003508B9003408B8000230BC00200002
:103C1000A0230A3064002E000F1A102E20000A2E56
:103C200022009A005B2E2300043084002000430809
:103C30002300BB00200042082300BA0020004108F6
:103C40002300B900200040082300B8000230BC0067
:103C50002000A0232C3064002E000F1A312E2000EB
:103C60002B2E22009A00203064002E000F1A3A2ECC
:103C70002200342E22009A000430840020004708DD
:103C80002300BB00200046082300BA00200045089E
:103C90002300B900200044082300B8000230BC0013
:103CA0002000A0230A3064002E000F1A592E200095
:103CB000532E22009A00672E2300543030009A00C1
:103CC00004309B0088312000982298312200A831CE
:103CD0002000792DA8018B1BA8178B1372082500D3
:103CE000A5001F30A6008031200026259831A81B92
:103CF0008B17013078070A3E813EF8002030FA0029
:103D00000318FA0A78082300B0007A08B100B90055
:103D10003008B8003F30BB005030BA000830BC005B
:103D200020003B2278082300AE002000A8018B1B56
:103D3000A8178B1372082500A5001F30A60080313C
:103D4000200026259831A81B8B1701307807143ED8
:103D5000813EF8002030FA000318FA0A78082300A0
:103D6000B0007A08B100B9003008B8003F30BB009D
:103D70003E30BA000830BC0020003B227808230007
:103D8000AF002E08013C031C302F2F0BFF2E2E0DF1
:103D9000F700F70DFC30F7057708283E8400203047
:103DA00085000318850A0008B00001310008B10041
:103DB00001310008B20001310008B3003D31B330D9
:103DC000B0076A30B13D0030B23DB33D04308400ED
:103DD0003308BB003208BA003108B9003008B80017
:103DE0000230BC002000A0230A3064002E000F1A0D
:103DF000FB2E2000F52E22009A002E2F23002E0DE0
:103E0000F700F70DFC30F7057708283E84002030D6
:103E100085000318850A0008B00001310008B100D0
:103E200001310008B20001310008B3003D31043017
:103E300084003308BB003208BA003108B9003008EA
:103E4000B8000230BC002000A0230A3064002E001D
:103E50000F1A2C2F2000262F22009A00EB2F230070
:103E60002E08023C031DE12F2F0B982FB3302000AA
:103E700048072300B0006A302000493D2300B1000C
:103E8000003020004A3D2300B200003020004B3DAE
:103E90002300B300B33020004C072300B4006A3085
:103EA00020004D3D2300B500003020004E3D230092
:103EB000B600003020004F3D2300B70004308400DE
:103EC0003308BB003208BA003108B9003008B80026
:103ED0000230BC002000A0232C3064002E000F1AFA
:103EE000732F20006D2F22009A00203064002E00D6
:103EF0000F1A7C2F2200762F22009A0004308400B3
:103F000023003708BB003608BA003508B90034086A
:103F1000B8000230BC002000A0230A3064002E004C
:103F20000F1A942F20008E2F22009A00DF2F2300DB
:103F30000430840020004B082300BB0020004A0806
:103F40002300BA00200049082300B90020004808D7
:103F50002300B8000230BC002000A0232C306400F5
:103F60002E000F1AB52F2000AF2F22009A0020300C
:103F700064002E000F1ABE2F2200B82F22009A00D4
:103F80000430840020004F082300BB0020004E08AE
:103F90002300BA0020004D082300B90020004C087F
:103FA0002300B8000230BC002000A0230A306400C7
:103FB0002E000F1ADD2F2000D72F22009A00EB2FA2
:103FC00023005D3030009A0004309B0088312000CF
:103FD000982298312200A8312000792DFF3FFF3F21
:103FE000FF3FFF3FFF3FFF3FFF3FFF3FFF3FFF3FE1
:103FF000FF3FFF3FFF3FFF3FFF3FFF3FFF3FFF3FD1
:1040000004082300B8003B30BF009A30BE00CA301D
:10401000BD00BC010A30BA00831421308500043091
:1040200084003708CB003608CA003508C9003408B8
:10403000C8003F08CF003E08CE003D08CD003C0838
:10404000CC00983120005123A0317808F708031DD7
:10405000402823003A08013A031D30282000402858
:104060003808031942280F393A020319392803186E
:104070004E28B81B4E28381B4228203043282000E9
:104080002300B8013030F707770864002E000F1ABC
:104090004B282300452822009A00230083103F0864
:1040A000CB003E08CA003D08C9003C08C800CF014B
:1040B000CE01CD010A30CC00983120005123A0312F
:1040C0007A082300BF007908BE007808BD00770891
:1040D000BC00BA0B0C2820000800A8018B1BA817F5
:1040E0008B1372082500A5001F30A6008031200028
:1040F0002625A031A81B8B17013078070A3E813E88
:10410000F8002030FA000318FA0A78082300B200F9
:104110007A08B3003308B5003208B400BC01BA0114
:104120000A30BB00B901B801B701B6013408350443
:10413000031D9F28F701F801F901FA01D6293C086F
:10414000BC0A340784000030353D85000008BD00FE
:104150003D082D3C031DB8280130BA003C08BC0ABC
:10416000340784000030353D85000008BD00C528B7
:104170003D082B3C031DC5283C08BC0A34078400BD
:104180000030353D85000008BD003D082F3C031878
:10419000BD293D08393C031CBD293D08303C031DA9
:1041A000F1283C08340784000030353D85000008C4
:1041B000783C0319E5283C08340784000030353D7D
:1041C00085000008583C031DF1281030BB00BC0AD4
:1041D0003C08BC0A340784000030353D85000008E7
:1041E000BD003B080A3C031D36293D082F3C03183F
:1041F00035293D08393C031C35290310360DC10013
:10420000370DC200380DC300390DC400360DF7005C
:10421000370DF800380DF900390DFA00F70DF80DDB
:10422000F90DFA0DF70DF80DF90DFA0DF830F70547
:1042300077084107B6007808423DB7007908433D4A
:10424000B8007A08443DB90030303D02B60700306E
:10425000B73DB83DB93D3C08BC0A34078400003086
:10426000353D85000008BD00F528BD293B08103C00
:10427000031DBD293D08603C031845293D087A3CD3
:10428000031C45293D08DF3946293D08BD003D088E
:104290002F3C03184F293D08393C031857293D0886
:1042A000403C0318BD293D08463C031CBD293D0880
:1042B0002F3C031883293D08393C031C8329360D04
:1042C000C100370DC200380DC300390DC400C10D47
:1042D000C20DC30DC40DC10DC20DC30DC40DC10D62
:1042E000C20DC30DC40DF030C10530303D02410791
:1042F000B6000030423DB7000030433DB80000300A
:10430000443DB900A729360DC100370DC200380D54
:10431000C300390DC400C10DC20DC30DC40DC10DC4
:10432000C20DC30DC40DC10DC20DC30DC40DF030BF
:10433000C10541303D020A3E4107B6000030423D12
:10434000B7000030433DB8000030443DB9003C08A0
:10435000BC0A340784000030353D85000008BD00EC
:10436000603C0318BA293D087A3C031CBA293D0871
:10437000DF39BB293D08BD0047293B080A3C031D26
:10438000CE293A0BCE29B609B709B809B909B60A38
:104390000319B70A0319B80A0319B90A3608F7004E
:1043A0003708F8003808F9003908FA007A08B1002F
:1043B0007908B0007808AF007708AE0020005008F8
:1043C00023002E02031D032A2000510823002F0280
:1043D000031D032A2000520823003002031D032A74
:1043E0002000530823003102031D032A20003C143F
:1043F000663030009A0004309B00883120009822FB
:10440000A0310C2A23006E3030009A0004309B004B
:10441000883120009822A031A831792D0508230089
:10442000BE000408BD00330EF038B900B907E23E03
:10443000BA00323EBC0033080F39BA07BA07BC07CE
:10444000E93EBB00BB07BB07320E0F39BB07BC07F9
:10445000BB0DBC0DBC09BC0D32080F39BC07B90D32
:104460000730B8000A30BC07BB03031C332ABB0764
:10447000BA03031C372ABA07B903031C3B2AB9073E
:10448000B803031C3F2A2130850008308400073020
:104490003D053D1384070030853D04080C3C031D99
:1044A000552A0508213C03193D170008F700031D94
:1044B000612A3D1B612A3D1A6F2ABD19612A2030ED
:1044C000642ABD153D123030F707770864002E00CE
:1044D0000F1A6C2A2300662A22009A002300013159
:1044E0003D1F4D2A20000800783030009A0004302B
:1044F0009B00883120009822A031413084002100A7
:104500002B082300B70021002A082300B600210051
:1045100029082300B500210028082300B40020004A
:1045200000202C3064002E000F1A982A2000922AB6
:1045300022009A00203064002E000F1AA12A2200C7
:104540009B2A22009A004130840021002F0823007A
:10455000B70021002E082300B60021002D082300FB
:10456000B50021002C082300B400200000202030DA
:1045700064002E000F1ABE2A2000B82A22009A00DA
:10458000823030009A0004309B008831200098224D
:10459000A03101302300AE002E08053C031CFB2A8D
:1045A00003102E0D383E8400203085000318850A44
:1045B0000008B00001310008B1003F311030840024
:1045C0003108B3003008B20020000E222C30640005
:1045D0002E000F1AED2A2000E72A22009A00203030
:1045E00064002E000F1AF62A2200F02A22009A00F8
:1045F0002300AE0ACC2A1030840020006708230074
:10460000B300200066082300B20020000E222030F4
:1046100064002E000F1A0E2B2000082B22009A0097
:10462000893030009A0004309B00883120009822A5
:10463000A03141308400210033082300B70021005D
:1046400032082300B600210031082300B500210004
:1046500030082300B400200000202C3064002E001D
:104660000F1A342B20002E2B22009A0020306400D9
:104670002E000F1A3D2B2200372B22009A004130CA
:104680008400210037082300B700210036082300EA
:10469000B600210035082300B500210034082300AE
:1046A000B40020000020203064002E000F1A5A2B86
:1046B0002000542B22009A00933030009A000430DE
:1046C0009B00883120009822A03101302300AE00E9
:1046D0002E08053C031C972B03102E0D483E84002A
:1046E000203085000318850A0008B0000131000859
:1046F000B1003F31103084003108B3003008B200FF
:1047000020000E222C3064002E000F1A892B20006E
:10471000832B22009A00203064002E000F1A922B67
:1047200022008C2B22009A002300AE0A682B103046
:104730008400210027082300B3002100260823005D
:10474000B20020000E220A3064002E000F1AAA2B9D
:104750002000A42B22009A00A8312000792D040803
:104760002300B8003B30BF009A30BE00CA30BD0005
:10477000BC010A30BA003408031DB8038314213089
:10478000850084013308CB003208CA003108C90013
:104790003008C8003F08CF003E08CE003D08CD00DD
:1047A0003C08CC00983120005123A0317808F7084C
:1047B000031DF12B2300340A3A02031DE12B2000D4
:1047C000F12B38080319F32B0F393A020319EA2B9E
:1047D0000318142CB81B142C381BF32B2030092C75
:1047E00020002300B80134083A02031D082C770882
:1047F000B8002E3064002E000F1A002C2300FA2B74
:1048000022009A0023003808F7002030B805003055
:104810003030F707770864002E000F1A112C2300A0
:104820000B2C22009A00230083103F08CB003E0887
:10483000CA003D08C9003C08C800CF01CE01CD0127
:104840000A30CC00983120005123A0317A0823008F
:10485000BF007908BE007808BD007708BC00BA0B1D
:10486000BE2B20000800A8018B1BA8178B13720811
:104870002500A5001F30A600803120002625A0318C
:10488000A81B8B17013078070A3E813E2300B00039
:104890002030B1000318B10A3108B9003008B8005F
:1048A0003F30BB001430BA000830BC009831200003
:1048B0003B22A03178082300AE002E08003A2000E9
:1048C00003196F2C013A03198E2C033A0319AD2CEE
:1048D000013A0319CC2C073A03192A2D482D04302C
:1048E00084002D082300B30020002C082300B20010
:1048F00020002B082300B10020002A082300B0006C
:104900000230B4002000AF230A3064002E000F1ADA
:104910008B2C2000852C22009A00522D043084001C
:1049200031082300B300200030082300B20020002B
:104930002F082300B10020002E082300B000023011
:10494000B4002000AF230A3064002E000F1AAA2CF6
:104950002000A42C22009A00522D04308400350837
:104960002300B300200034082300B20020003308E5
:104970002300B100200032082300B0000230B40050
:104980002000AF230A3064002E000F1AC92C20002B
:10499000C32C22009A00522D36082300B0001B3091
:1049A000B1003008C0006430C10088312000C52744
:1049B000A03177082300B00078083030031DE72CC1
:1049C000B11CF52CB119F52C311A2030EA2CB1119B
:1049D00031123114F807780864002E000F1AF22CF7
:1049E0002300EC2C22009A0023003008C0000A307B
:1049F000C10088312000C527A03177082300B0000E
:104A000078083030031D0A2DB119152D311C152DD4
:104A1000311A2030F807780864002E000F1A122D82
:104A200023000C2D22009A0023003030B0073008FC
:104A300064002E000F1A1E2D2300182D22009A004C
:104A40000A3064002E000F1A272D2200212D22008B
:104A50009A00522D413084003A082300B70020000C
:104A600039082300B600200038082300B5002000D4
:104A700037082300B400200000200A3064002E0014
:104A80000F1A442D20003E2D22009A00522D2000A6
:104A90009A3030009A0004309B0088312000982220
:104AA000A0312200A8312000792D23006D08EF00ED
:104AB0006C082400A10023006B082400A000230040
:104AC0006E08003C03187E2D24002108FA002008FF
:104AD00084007A08850023006F080002031D772DEB
:104AE00024002008F8002108F900822D230024006A
:104AF000A00A0319A10A2300EE03602D0030F8007C
:104B0000F90024002000080020302300391E303036
:104B1000BC003808F700B81F952DF709F70A770889
:104B2000B8002D30BC00B91739143808C000643003
:104B3000C10088312000C527A03177082300B800C4
:104B400030307807BD003808C0000A30C100883115
:104B50002000C527A031303077072300BF00303058
:104B60007807BE003C08F70030303D020319BC2D29
:104B7000B914B91B3915D02D3C08BD002030BC003C
:104B800030303E020319C82D3914B91BB914D02D89
:104B9000031D3914031DD02D3D08BE002030BD007B
:104BA0003919D72DB918E12D3918EB2DF52D3C0801
:104BB00064002E000F1ADE2D2300D82D22009A004B
:104BC00023003D0864002E000F1AE82D2300E22D7B
:104BD00022009A0023003E0864002E000F1AF22DD6
:104BE0002300EC2D22009A0023003F0864002E00D1
:104BF0000F1AFC2D2300F62D22009A002000080039
:104C0000A8018B1BA8178B1372082500A5001F3065
:104C1000A600803120002625A031A81B8B1701306B
:104C200078070A3E813EF8002030FA000318FA0A9D
:104C300078082300B0007A08B100B9003008B80045
:104C40003E30BB00CF30BA000830BC0098312000A5
:104C50003B22A03178082300AE002E08003A200045
:104C600003194B2E013A03195F2E033A0319732ED1
:104C7000013A0319872E073A03199B2E013A0319AB
:104C8000AF2E033A0319C32E013A0319D72E0F3A58
:104C90000319EB2E5C2F00303B1801302300B000CD
:104CA000B8001830B900200084250A3064002E00B6
:104CB0000F1A5C2E2000562E22009A00662F00301C
:104CC000BB1901302300B000B8001830B900200033
:104CD00084250A3064002E000F1A702E20006A2EE0
:104CE00022009A00662F00303B1A01302300B000EA
:104CF000B8001830B900200084250A3064002E0066
:104D00000F1A842E20007E2E22009A00662F00307B
:104D1000BB1A01302300B000B8001830B9002000E1
:104D200084250A3064002E000F1A982E2000922E3F
:104D300022009A00662F0030BB1801302300B0001B
:104D4000B8001830B900200084250A3064002E0015
:104D50000F1AAC2E2000A62E22009A00662F0030DB
:104D60003B1901302300B000B8001830B900200012
:104D700084250A3064002E000F1AC02E2000BA2E9F
:104D800022009A00662F00303B1B01302300B00048
:104D9000B8001830B900200084250A3064002E00C5
:104DA0000F1AD42E2000CE2E22009A00662F00303B
:104DB000BB1B01302300B000B8001830B900200040
:104DC00084250A3064002E000F1AE82E2000E22EFF
:104DD00022009A00662F00303B1801302300B000FB
:104DE00000302000BB1901302300B100003020004A
:104DF0003B1A01302300B20000302000BB1A013002
:104E00002300B30000302000BB1801302300B400A1
:104E1000003020003B1901302300B5000030200095
:104E20003B1B01302300B60000302000BB1B0130CB
:104E30002300B7003008B8001830B90020008425DE
:104E400023003108B8001830B90020008425230061
:104E50003208B8001830B900200084252300330838
:104E6000B8001830B9002000842523003408B800A9
:104E70001830B9002000842523003508B800183008
:104E8000B9002000842523003608B8001830B90086
:104E90002000842523003708B8001830B90020000E
:104EA00084250A3064002E000F1A582F2000522F3C
:104EB00022009A00662F2000EA3030009A00043069
:104EC0009B00883120009822A0312200A8312000C8
:104ED000792D2300B101B001AF01AE012030B30044
:104EE000FE30B20030009B012B309A0023003308C3
:104EF0008500320884000430CC0088312000B227BD
:104F0000A0314130840023003108B7003008B600DA
:104F10002F08B5002E08B400200000200A306400DD
:104F20002E000F1A952F20008F2F22009A00A831F3
:104F30002000792DFF3FFF3FFF3FFF3FFF3FFF3F37
:10500000A8018B1BA8178B1372082500A5001F3061
:10501000A600803120002625A831A81B8B1701305F
:1050200078070A3E813E2300B6002030B7000318FF
:10503000B70A3708B9003608B8003F30BB00143053
:10504000BA000830BC00983120003B22A831780813
:105050002300AE002000A8018B1BA8178B13720839
:105060002500A5001F30A600803120002625A8318C
:10507000A81B8B1701307807143E813E2300B60031
:105080002030B7000318B70A3708B9003608B8004F
:105090002030BB00FF30BA000A30BC00C401C3019D
:1050A0003030C6003130C7003230C8003330C9005C
:1050B0003430CA003530CB003630CC003730CD002C
:1050C0003830CE003930CF006130D0006230D100AE
:1050D0006330D2006430D3006530D4006630D50030
:1050E0006730D6006830D7006930D8006A30D90000
:1050F0006B30DA006C30DB006D30DC006E30DD00D0
:105100006F30DE007030DF007130E0007330E1009E
:105110007430E2007530E3007630E4007730E5006B
:105120007830E6007930E7007A30E800E9013908A4
:10513000BE003808BD003E08FA003D0884007A0829
:1051400085000008203C031DA928BD0A0319BE0ADA
:105150009B283E08FA003D0884003E0885000008B0
:105160002D3C0319BD283E08FA003D0884003E0886
:10517000850000082B3C031DC8283E08FA003D08A6
:10518000BD0A0319BE0A84007A0885000008C928F0
:105190002B30C50045082D3C0319D928BC1BD92844
:1051A0003C0BD328D928BC1BDB283C08243C031823
:1051B000DB282B2A6729BC08031930293C08103C3E
:1051C000031D02293E08FA003D0884007A08850084
:1051D0000008303C031D02293D0884003E0885007C
:1051E00001310008783C0319FE283D0884003E0880
:1051F000850001310008583C031D02290230BD071B
:105200000030BE3D3C08083C031D14293E08FA004E
:105210003D0884007A0885000008303C031D1429ED
:105220000130BD070030BE3D3C08023C031D2F2964
:105230003E08FA003D0884007A0885000008303CEA
:10524000031D2F293D0884003E0885000131000818
:10525000623C031D2F290230BD070030BE3D672987
:105260003E08FA003D0884007A0885000008303CBA
:1052700003193D290A30BC0067293D0884003E0817
:10528000850001310008783C03194F293D0884004E
:105290003E08850001310008583C031D5629103096
:1052A000BC000230BD070030BE3D67293D088400C8
:1052B0003E08850001310008623C031D652902306B
:1052C000BC00BD070030BE3D67290830BC003E0869
:1052D000C0003D08BF003E08FA003D0884007A087F
:1052E00085000008303C031D7929BD0A0319BE0A58
:1052F0006B293E08FA003D0884003E08850000083E
:10530000EA00403C03188B296A085A3C031C8B298D
:105310006A0820388C296A08EA002130EC0016302F
:10532000EB006A08ED003C08EE00A0312000552596
:10533000A83179082300C2007808C100C108031D04
:10534000A429C2080319232AFA013C08F700F71B15
:10535000FA03EA007A08EB004408ED004308EC0089
:105360006B08EF006A08EE006D086F0680392400B4
:10537000A1002300ED1FC129EC09ED09EC0A031976
:10538000ED0AEF1FC829EE09EF09EE0A0319EF0A2B
:1053900010302400A000F701FA012300ED0CEC0C02
:1053A000031CD8296E08F7070318FA0A6F08FA07D2
:1053B000FA0CF70CF90CF80C2400A00BCD29A11F56
:1053C000E629F809F909F80A0319F90A7908230006
:1053D000EB007808EA0016304102F7002130423B2A
:1053E000FA0077086A07F8006B08FA3D7808C300EE
:1053F0007A08C400BD0A0319BE0A3E08FA003D0837
:1054000084003E0885000008EA00403C03180F2A8B
:105410006A085A3C031C0F2A6A082038102A6A08B6
:10542000EA002130EC001630EB006A08ED003C0881
:10543000EE00A03120005525A83179082300C200D4
:105440007808C1009E293D083F02031D3C2A3E0802
:105450004002031D3C2A23003A083B040319382A62
:105460003A0884003B088500380880003908813FED
:105470000030F800F9004C2A3A083B040319482A86
:105480003A0884003B0885003D0880003E08813FC3
:105490004308F8004408F900B401B3017908B200E8
:1054A0007808B1002E08003A20000319642A013A56
:1054B0000319CA2A033A0319372B013A03199D2B02
:1054C000073A0319CB2B1B2C23003408B9003308EF
:1054D000B8003208B7003108B600BD01BC01BB01FD
:1054E0006430BA00883120001821A8317A082300DE
:1054F000B4007908B3007808B2007708B100B408A6
:10550000031D8F2AB308031D8F2A32080D3C031C8C
:105510008F2A031D912A3108483C0318912A003034
:10552000922A0130B600B408031DA22AB308031D55
:10553000A22AB208031DA22A3108643C031CA22A35
:105540000030A32A013036050319C02A3408200090
:10555000AD00230033082000AC00230032082000F7
:10556000AB00230031082000AA00A43030009A00CC
:1055700004309B00883120009822A831C92A2300DA
:10558000A93030009A0004309B0088312000982216
:10559000A831252C23003408B9003308B80032089C
:1055A000B7003108B600BD01BC01BB016430BA00D0
:1055B000883120001821A8317A082300B400790826
:1055C000B3007808B2007708B100B408031DF82AC8
:1055D000B308031DF82A3208C23C0318F62AFF3A22
:1055E000031DF82A31084F3C031CF82A0030F92A21
:1055F0000130B600B408031D0D2B3308013C031C19
:105600000D2B031D0F2B32085F3C031C0D2B031DBC
:105610000F2B31088F3C03180F2B0030102B01305B
:10562000360503192D2B34082000B1002300330860
:105630002000B000230032082000AF002300310812
:105640002000AE00B03030009A0004309B0088315A
:1056500020009822A831362B2300B53030009A0064
:1056600004309B00883120009822A831252C23008B
:105670003408B9003308B8003208B7003108B60062
:10568000BD01BC01BB016430BA0088312000182183
:10569000A8317A082300B4007908B3007808B20072
:1056A0007708B100B408031D612BB308031D612BFB
:1056B000B208031D612B3108633C031C612B0030D1
:1056C000622B0130B600B408031D732BB308031D11
:1056D000732B3208273C031C732B031D752B3108D9
:1056E0000F3C0318752B0030762B0130360503195B
:1056F000932B34082000B500230033082000B400A9
:10570000230032082000B300230031082000B2003B
:10571000BC3030009A0004309B0088312000982271
:10572000A8319C2B2300C13030009A0004309B002C
:10573000883120009822A831252C2300B408031DAD
:10574000AA2BB308031DAA2B3208003C031CAA2B6A
:105750000030AB2B013000390319C12B2000B501FB
:10576000B401B301230031082000B200C83030007A
:105770009A0004309B00883120009822A831CA2B5F
:105780002300CD3030009A0004309B008831200087
:105790009822A831252C2300B408031DDF2BB30861
:1057A000031DDF2B3208023C0318DD2BFF3A031DDB
:1057B000DF2B3108E83C031CDF2B0030E02B0130ED
:1057C000B600B408031DF12BB308031DF12B3208FA
:1057D000273C031CF12B031DF32B31080F3C03184E
:1057E000F32B0030F42B013036050319112C34084B
:1057F0002000BA00230033082000B900230032083B
:105800002000B800230031082000B700D430300059
:105810009A0004309B00883120009822A8311A2C6D
:105820002300D93030009A0004309B0088312000DA
:105830009822A831252CE03030009A0004309B00DB
:10584000883120009822A831252CA831792DA80173
:105850008B1BA8178B1372082500A5001F30A6000C
:10586000803120002625A831A81B8B1781307807AE
:105870008400203085000318850A0008023C031DBF
:10588000622CF43030009A0004309B0088312000F4
:105890009822A831A8018B1BA8178B13720825002A
:1058A000A5001F30A600803120002625A831A81BA6
:1058B0008B17813078078400203085000318850A13
:1058C00080019B2DA8018B1BA8178B137208250044
:1058D000A5001F30A600803120002625A831A81B76
:1058E0008B17813078078400203085000318850AE3
:1058F0000008233C031D912DA8018B1BA8178B13B7
:1059000072082500A5001F30A60080312000262542
:10591000A831A81B8B1701307807813E2300AE0009
:105920002030AF000318AF0A2F08B9002E08B800C6
:105930003F30BB009630BA000830BC0098312000E0
:105940003B22A83178082300AD002D08003A200042
:105950000319CF2C013A0319D32C033A0319D72C7E
:10596000013A0319F72C073A0319FB2C013A0319E2
:10597000FF2C033A0319032D013A0319052D0F3AA1
:105980000319092D013A0319132D033A0319172D91
:10599000013A03192D2D073A03196B2D702D9831FB
:1059A0005C2CA831792D98316A2EA831792D41309F
:1059B000840053082300B700200052082300B600DB
:1059C000200051082300B500200050082300B40037
:1059D000A03120000020A8310A3064002E000F1AE8
:1059E000F32C2000ED2C22009A002000792DA0310C
:1059F0006D28A831792DA031742AA831792DA031D4
:105A0000332CA831792D0028792DA031002EA83112
:105A1000792DFC3030009A0004309B008831200042
:105A20009822A831792DA031692FA831792D203005
:105A30002300AF000A30AE001130B000B101803158
:105A400020004827A831133030009A0005309B0011
:105A5000883120009822A831792D20302300AF0012
:105A60000A30AE001130B000B101B201300832028C
:105A70000318612D31083207B40032082E07840064
:105A800000302F3D85000008B5000B08F7008B1390
:105A9000340830009A0070309B0023003508300035
:105AA0009C001E171E1555309F00AA309F009E14A3
:105AB0009E18582D1E111E1377088B042300B20A5E
:105AC000362D183030009A0005309B0088312000B8
:105AD0009822A831792D0100003A031D0030792D5C
:105AE0001D3030009A0005309B008831200098223C
:105AF000A831A8018B1BA8178B1372082500A500DD
:105B00001F30A600803120002625A831A81B8B1746
:105B1000813078078400203085000318850A8001D1
:105B20009B2D3F08720203199B2D0130F20772086A
:105B3000033C031CF20164302300EF00803120009D
:105B40008927A831A8316B2E55303D008F00AA302F
:105B50008F000F101330C5001430C6001730CB0073
:105B600014303E00A3001530A5001030A6005530BB
:105B70003D008F00AA308F000F14310092018F0179
:105B800091010530930010308D002000A901220002
:105B90009F110C309B00A2309E0090309D00200091
:105BA0003C10BC102300901240308F00FF308D005D
:105BB0002A30900091302000930093009300BF01A1
:105BC000F001F101F2012100C901C80120003C11DE
:105BD0003E00B801C301CE0133009101920193014F
:105BE000900195019601970194012000BC112E2E81
:105BF000023400342A34B8340B340634C034003450
:105C000009348034DC340534003400340A34B834C8
:105C10000B3400340034023400343D34003400349A
:105C20000234003473340034003410340034B83497
:105C30003234313434343334363435343834373420
:105C400040343934423441344434433400344534EC
:105C500002340034CA340034003400342D3085005E
:105C6000F830840085171200F700003A0319482E17
:105C70001200F800F81B402E0F3987001200860032
:105C8000781B1200781F12001E00F70B422E332ED5
:105C900030000C08640088312000B629A831C030DB
:105CA0008B0430000C08640031309A0007309B00F0
:105CB000883120009822A83188315020A831300046
:105CC0000C086400983120000028A83130000C082E
:105CD00064002000272C30000C08640020005C2E9B
:105CE0006300FF3FFF3FFF3FFF3FFF3FFF3FFF3F9F
:105CF000FF3FFF3FFF3FFF3FFF3FFF3FFF3FFF3FB4
:107D80003F003F003F003F003F003F003F003F00FB
:0E7D90003F003F003F003F003F003F003F002C
:027D9E004F3460
:107DA000503445344E3400340034003400345434FC
:107DB000553453340034003400340034003450342B
:107DC0004534513400340034003400340034563427
:107DD0004F344B3400340034003400340034473422
:107DE00056344F3400340034003400340034473407
:107DF0005634433400340034003400340034473403
:107E000056345434003400340034003400344734E1
:107E1000563400340034003400340034003461340B
:107E20006C346C3400340034503464346934663457
:107E30006634003400340034503465344D346934D1
:107E40006E34003400340034503464344D346134C2
:107E500078340034003400345034643443346E34A5
:107E6000743400340034003474345F346F34753447
:107E700074340034003400340034003443340034AB
:107E80000034003400340034003400344B34003407
:107E90000034003400340034003400340034003442
:107EA00054343134003400340034003400340034AD
:107EB000543432340034003400340034003400349C
:107EC00061346C346C3400340034003400340034D9
:107ED000003400346D344234613472340034003480
:107EE0000034003454346F3472347234003400344B
:107EF0000034003400340034503431340034003461
:107F0000003400340034003450343234003400344F
:107F1000003400340034003461346C346C34003488
:107F200000340034003400340034003467345034FA
:107F300000340034003400340034003467345434E6
:107F400000340034003400340034003467344B34DF
:107F500065347934003400340034003466346F34CE
:107F6000723463346534003400340034673452347E
:107F700061347734003400340034003467345434CE
:107F80006834003400340034003400347334543422
:107F9000683400340034003400340034673453341F
:107FA000743461347434003400340034673472340F
:107FB0000034003400340034003400346734733447
:107FC0000034003400340034003400346C346F3436
:107FD0006134643400340034003400347334613468
:107FE000763465340034003400340034723465343F
:107FF00062346F346F34743400340034003400342D
:020000040001F9
:0A000E009C3FFD3FFF3FFF1FFF3F37
:00000001FF
;PIC16F18856
;CRC=CF26  CREATED="20-Nov-19 15:41"
